:10000000ECC300000BC4000009C4000007C40000DA
:1000100005C4000003C4000001C40000FFC30000C9
:10002000FDC30000FBC30000F9C300000C94B5251C
:10003000F5C30000F3C300000C94EB250C941826C4
:100040000C9445260C9472260C949F260C94CC2676
:100050000C94F9260C9426270C9453270C94802793
:10006000DDC30000DBC30000D9C30000D7C300001C
:10007000D5C30000D3C30000D1C30000CFC300002C
:10008000CDC30000CBC30000C9C30000C7C300003C
:10009000C5C30000C3C30000C1C300000C941623F5
:1000A0000C9448230C947A230C94AC23B7C300001F
:1000B000B5C30000B3C30000B1C300000C946F29A6
:1000C0000C949C290C94C9290C94F6290C94232A8D
:1000D0000C94502A0C947D2A0C94AA2A0C94D72AAA
:1000E0000C94042B9BC3000099C3000097C300002D
:1000F00095C3000093C3000091C300008FC30000AC
:100100008DC300008BC3000089C3000087C30000BB
:1001100085C3000083C3000081C300000C944E22FD
:100120000C9480220C94B2220C94E42277C3000039
:1001300075C300000C94AD270C94DA270C940728A3
:100140000C9434280C9461280C948E280C94BB28B1
:100150000C94E8280C9415290C9442295FC30000E4
:100160005DC300005BC3000059C3000057C300001B
:1001700055C3000053C3000051C300004FC300002B
:100180004DC300004BC3000049C3000047C300003B
:1001900045C3000043C3000041C300003FC300004B
:1001A0003DC300003BC3000039C3000037C300005B
:1001B0000C94312B0C945E2B0C948B2B0C94B82B41
:1001C0000C94E52B0C94122C29C3000027C30000CB
:1001D00025C3000023C3000021C300001FC300008B
:1001E0001DC300001BC3000019C3000017C300009B
:1001F00015C300000C94EF330C94A934F82FE62FAC
:10020000E92FEC2FEF2FF22FF52FFF7E3C18FF7E0A
:100210003C18183C7EFF0000000000000020202059
:1002200020200020505050000000005050F850F89E
:1002300050502078A07028F020C0C8102040981896
:100240006090A040A890686020400000000010204E
:10025000404040201040201010102040005020F856
:10026000205000002020F820200000000000602026
:1002700040000000F8000000000000000060600086
:10028000081020408000708898A8C88870206020DE
:1002900020202070708808102040F8F810201008E6
:1002A000887010305090F81010F880F008088870AE
:1002B000304080F0888870F80810204040407088F6
:1002C0008870888870708888780810600060600086
:1002D0006060000060600060204008102040201036
:1002E000080000F800F800008040201020408070D6
:1002F00088081020002070880868A8A87070888876
:1003000088F88888F08888F08888F07088808080F5
:100310008870E09088888890E0F88080F08080F88D
:10032000F88080E0808080708880809888708888DD
:1003300088F88888887020202020207038101010BD
:100340001090608890A0C0A090888080808080807D
:10035000F888D8A8888888888888C8A898888870E5
:10036000888888888870F08888F080808070888885
:1003700088A89068F08888F0A090887880807008BD
:1003800008F0F8202020202020888888888888701D
:1003900088888888885020888888A8A8D8888888ED
:1003A000502050888888885020202020F80810206D
:1003B0004080F8382020202020380080402010087D
:1003C00000E02020202020E02050880000000000D5
:1003D0000000000000F84020100000000000007045
:1003E000087888788080B0C88888F00000708080A5
:1003F00088700808689888887800007088F880708D
:10040000304840E0404040000078887808308080E4
:10041000B0C888888820006020202070100030102C
:1004200010906040404850605048602020202020BC
:10043000700000D0A8A888880000B0C8888888000C
:100440000070888888700000F088F0808000006864
:10045000987808080000B0C8808080000070807024
:1004600008F04040E04040483000008888889868A4
:100470000000888888502000008888A8A8500000C4
:100480008850205088000088887808700000F81094
:100490002040F81020204020201020202020202064
:1004A0002040202010202040088942183DBC1842DE
:1004B00091103C7EFF8180100A021A021A020A1073
:1004C0006050A09884828C844C300D0A57656C6310
:1004D0006F6D6520746F2074686520584D454741E5
:1004E0002D413342552058706C61696E656420441B
:1004F000656D6F2043444320696E74657266616365
:1005000065210D0A0D0A4B65792062696E64696E7A
:10051000677320666F72204C4344206D656E7520B2
:10052000636F6E74726F6C3A0D0A2020456E7465AD
:10053000722020202020203A20456E7465720D0A1A
:1005400020204261636B737061636520203A204212
:1005500061636B0D0A20204172726F772055702005
:1005600020203A2055700D0A20204172726F7720AA
:10057000446F776E203A20446F776E0D0A00446115
:10058000746520696E76616C6964004D696E75747E
:100590006500486F757200446179004D6F6E746834
:1005A0000059656172005365742054696D657A6FF6
:1005B0006E65005365742054696D65005365742041
:1005C000446174650053686F7720446174652654F4
:1005D000696D6500446174652654696D6500546FEA
:1005E00067676C65204261636B6C6967687400447F
:1005F00061746520262054696D650050726F6475C2
:100600006374696F6E2044617465004C6967687437
:1006100073656E736F720054656D70657261747589
:100620007265004D61696E204D656E750054656D93
:100630007065726174757265002B3435206D696E5A
:10064000002B3330206D696E002B3135206D696EC3
:10065000002030206D696E0054696D657A6F6E659B
:10066000206D696E757465733A002B31323A2046FD
:10067000696A69002B31313A20536F6C6F6D6F6E70
:100680002049736C616E64002B31303A2041455330
:100690005400202B393A20546F6B796F00202B388F
:1006A0003A20486F6E67204B6F6E6700202B373AF9
:1006B00020546861696C616E6400202B363A2042D8
:1006C000616E676C616465736800202B353A205059
:1006D000616B697374616E00202B343A204D6F7327
:1006E000636F7700202B333A204E6169726F626925
:1006F00000202B323A20497374616E62756C0020C1
:100700002B313A204F736C6F2C204265726C696EEE
:10071000005554433A20554B2028474D542900207A
:100720002D313A20507261696100202D323A2053F8
:100730006F7574682047656F7267696100202D339B
:100740003A20477265656E6C616E6400202D343A04
:100750002045435400202D353A204561737465725D
:100760006E00202D363A2043656E7472616C002055
:100770002D373A204D6F756E7461696E00202D38EB
:100780003A205061636966696300202D393A20413F
:100790006C61736B61002D31303A2048617761697B
:1007A00069002D31313A204B696E676D616E2052C0
:1007B000656566002D31323A2042616B65722049D1
:1007C000736C616E640054696D657A6F6E65206844
:1007D0006F75727320555443000011241FBECFEF74
:1007E000CDBFDFE5DEBF00E00CBF12E2A0E0B0E26B
:1007F000ECE8F6E800E00BBF02C007900D92AA36C5
:10080000B107D9F72BE2AAE6B2E201C01D92AA39DC
:10081000B207E1F70E94CC3A0C944443F1CB8093A9
:10082000A2066093A2068093A5066093A606609335
:10083000A10608953F936093A2068093A10680933A
:10084000A2066093A1063F918091A8068423089593
:100850008093A6068093A1060895A1E0B0E0E3E3AB
:10086000F4E00C944C40E82F0FB700781982809187
:100870006A22813019F081E080936A22CE2EDD2435
:10088000F601E455FD4DB080F601E055FD4DA08028
:10089000F894BB2009F4AAC08B2DDADF8B2D6A2DCA
:1008A000BEDF1B2DEE24FF2460E0812C30E2932E6E
:1008B000F5FE07C09091AD228091AC22982B19F5DE
:1008C00035C08FB7802B8FBF0000F8948B2D6A2D19
:1008D000412FB0DF682F0894E11CF11C80910020AB
:1008E0008F5F80930020823030F0823021F083309F
:1008F00011F0109200206623D9F22091AD22809150
:10090000AC22282B15C0412F80E040FF09C0E82F02
:10091000F0E0EE0FFF1FEB58FD4D8082918201C089
:1009200090FD8F5F96954695992379F710E020E02A
:100930008FB7802B8FBF10926B22222309F43FC008
:10094000112309F43CC03091B1228091B022382BA0
:10095000562F90E080E070E040E023C050FD17C0CB
:1009600019C030FF13C0981781F4E42FF0E0EE0FA8
:10097000FF1FEB58FD4DE082F182852F8E7F19F429
:10098000892F71E008C0892F06C08F5F3695332309
:1009900041F701C020FD9F5F20FD4F5F56952695D2
:1009A00011F05523D9F640936B22609516237130D0
:1009B00021F4112311F4EE24FF2460E013C0809190
:1009C000AD229091AC22892B898390E006C0898169
:1009D00080FD9F5F89818695898389818823B9F706
:1009E00090936B22F894112309F062CF8CEA92E283
:1009F000C80ED91EF60180812BDF8FB7082B0FBFE1
:100A00002196ECE00C946540FC0180E290E080834C
:100A100091831282138280E394E084839583089506
:100A20009091A622A92FB0E0FD01EE0FFF1FEA0F63
:100A3000FB1FEE0FFF1FE257FD4D43836770858359
:100A40002370660F660F660F262B24839F5F90939B
:100A5000A62208951F93CF93DF93282FC82FD0E0AD
:100A6000FE01EE0FFF1FEC0FFD1FEE0FFF1FE25701
:100A7000FD4D3581838190E000906E2202C09595F6
:100A800087950A94E2F7182F843008F414E08091D7
:100A9000A622281718F020E030E02DC0832F1DD1AA
:100AA0009C01412F50E016951695812F90E0841BF4
:100AB000950B8217930764F4FE01EE0FFF1FEC0FF6
:100AC000FD1FEE0FFF1FE257FD4D84818B7F848356
:100AD00088279927841B950B8217930764F0FE01E2
:100AE000EE0FFF1FEC0FFD1FEE0FFF1FE257FD4D36
:100AF000848184608483C901DF91CF911F9108951F
:100B0000FF920F931F93CF93DF9310928622109240
:100B1000872220918A2230918B2280938A2290937F
:100B20008B2240918C2250918D22421B530B480FF7
:100B3000591FFF2403C0F394485C5040483C5105C2
:100B4000D0F740938C2250938D228091A722882346
:100B500041F08F1518F41092A72203C08F198093CB
:100B6000A722AAD3E0918822F0918922309709F038
:100B7000199510E000E005C0812F6F2DC3D0082B20
:100B80001F5F6091A6221617B8F3002349F08091E9
:100B9000862290918722916080938622909387226B
:100BA00010928522AEE8B2E230E041E050E017C09A
:100BB0008C91887191F0E32FE695E695E695F0E04B
:100BC000EB58FD4D832F8770EA0102C0CC0FDD1F6B
:100BD0008A95E2F720892C2B208B3F5F16963617DB
:100BE00038F38091862290918722CDB7DEB7E5E079
:100BF0000C946C401092A62284E080936F2294E1C2
:100C00009093722285E080937322109271229093C8
:100C1000702281E080936E2283E0809374223BD324
:100C2000109288221092892208951F9310E003C029
:100C3000812F27D01F5F8091A6221817C8F31F911C
:100C40000895EF92FF921F93CF93DF93EC017B0106
:100C500010E003C0812F15D01F5F8091A6221817C6
:100C6000C8F310928A2210928B22C0936C22D093E8
:100C70006D22C7010BD3DF91CF911F91FF90EF90B1
:100C8000089590E0EEE8F2E29C01220F331F280F56
:100C9000391FD901AA0FBB1FAE0FBF1F15964C916C
:100CA0001597809186229091872282608093862278
:100CB000909387222F5F3F4F220F331FE20FF31FC6
:100CC0001082E8EAF2E2E40FF11D80E8808381E01F
:100CD0008C938FE011968C93089590E0FC013496EC
:100CE000A5E7B2E2EE0FFF1FEA0FFB1F880F991F67
:100CF000A80FB91F208131818D919C91281B390B40
:100D0000C9010895A0E0B0E0E8E8F6E00C944A409C
:100D1000782EF62E9FDE5C01072D10E0F801EE0F15
:100D2000FF1FE00FF11FEE0FFF1FE257FD4D548133
:100D30004381242F30E0852F837090E0019602C01C
:100D4000359527958A95E2F7822F223008F482E0C4
:100D5000242F30E0B901681B7109F801EE0FFF1F65
:100D6000E00FF11FEF01CC0FDD1FC257DD4D888171
:100D7000843009F4F7C0853030F4813071F082306E
:100D800009F07DC26EC0803109F4A1C1803209F43E
:100D900042C2883009F073C2EEC140918622509160
:100DA0008722CA01926080938622909387228D8148
:100DB0006981A82FB0E06A3060F0AA0FBB1FFD0167
:100DC000EB58FD4D80819181A358BD4D8D939C932F
:100DD00018C0AA0FBB1FFD01E358FD4D20813181D2
:100DE000AB58BD4D8D919C918217930718F42150FB
:100DF000304005C02817390750F42F5F3F4F20833C
:100E00003183486052604093862250938722862F18
:100E10008150F801EE0FFF1FE00FF11FEF01CC0F23
:100E2000DD1FC257DD4D89838823B1F4AD8182E097
:100E30008883809186229091872282608093862287
:100E400090938722EE0FFF1FE057FD4D1082B0E018
:100E5000A855BD4D80E88C93809170228093A72285
:100E60000CC252FF04C080E288831982F7C1C50119
:100E7000B7FE02C080E090E08217930780F0F8018F
:100E8000EE0FFF1FE00FF11FEE0FFF1FDF01A25754
:100E9000BD4D84E08C93E057FD4D1082E5C1FF20ED
:100EA00009F4EDC18091A722882309F0E8C1F80177
:100EB000EE0FFF1FE00FF11FEE0FFF1FE257FD4D7A
:100EC000858190E0EC01CC0FDD1FC358DD4D2881FA
:100ED0003981FC01EE0FFF1FEB58FD4D0190F081B1
:100EE000E02D2E173F0788F4FC01E855FD4D908159
:100EF0009F0D9083809173228058981708F4BFC18A
:100F000080E880832F5F3F4F14C0DC01A855BD4DA2
:100F1000E217F307D0F48C918F198C9340E89091ED
:100F20007222542F591B581708F4A9C14C93215011
:100F3000304028833983809186229091872288606F
:100F400080938622909387229AC12C91213810F0A9
:100F500021502C93FC01E855FD4D808187FD8FC108
:100F60008F5F57C1C501B7FE02C080E090E0F80175
:100F7000EE0FFF1F8217930708F48FC08091702235
:100F80008093A7229F01200F311F220F331FD90109
:100F9000A057BD4D8C918F5F8C93F901E257FD4DA9
:100FA000848190E08873907023E0969587952A95C8
:100FB000E1F7682E882309F43EC0DD24CC247F01AC
:100FC00083E090E0E80EF91E4D012FC0D71461F1C7
:100FD0008D2D90E0EC01CC0FDD1FC80FD91FCC0F79
:100FE000DD1FC257DD4D8C8190E08873907073E0F7
:100FF000969587957A95E1F76816B1F48D2D2ADDDF
:101000002B81821B9109F7012081A501421B510907
:10101000481759072CF08881803111F0883021F46D
:10102000F4011082CC24C394D3948091A622D816C4
:1010300068F2CC2079F480916F22882359F0809156
:1010400086229091872298608093862290938722AF
:1010500041E001C040E09801220F331F200F311FF3
:10106000F901EE0FFF1FE057FD4D908180916F2237
:10107000981708F405C18091862290918722836099
:101080008093862290938722F901EE0FFF1FE2578B
:10109000FD4D80E180831182F3C0E00FF11FEE0F60
:1010A000FF1FDF01A257BD4D15962C91159782E0C9
:1010B0008C938091862290918722826080938622F1
:1010C00090938722E057FD4D1082E22F9EC0C5010C
:1010D000B7FE02C080E090E0F801EE0FFF1F4091E4
:1010E0008622509187228617970770F4E00FF11F30
:1010F000EE0FFF1FE257FD4D88E080835460409360
:1011000086225093872231C04160409386225093BB
:101110008722E00FF11FEE0FFF1FE057FD4D90817A
:1011200080916F22981710F49F5F908390917122A5
:10113000992371F0F801EE0FFF1FE00FF11FEE0F82
:10114000FF1FE257FD4D8181891720F48F0D8183A8
:1011500040E00CC0872D95DD8091862290918722FA
:101160009260809386229093872241E08091702242
:101170008093A72285C0809170228093A722DF01EF
:10118000AA0FBB1FA057BD4D8C91882389F1C501C3
:10119000B7FE02C080E090E0409186225091872205
:1011A0006817790790F4F801EE0FFF1FE00FF11FA9
:1011B000EE0FFF1FE257FD4D80E1808341604093B9
:1011C00086225093872240E006C0546040938622D6
:1011D0005093872241E0F801EE0FFF1FE00FF11F4F
:1011E000EE0FFF1FE057FD4D80818150808348C086
:1011F000ED8182E0888380918622909187228260AF
:1012000080938622909387221C92F0E0E855FD4D52
:1012100080E8808334C099819F5F99838C8182FDAF
:1012200017C0AD8182E088838091862290918722C9
:1012300082608093862290938722EE0FFF1FE057F3
:10124000FD4D1082B0E0A855BD4D80E88C9317C0CD
:1012500080917422981740F0872D13DD80918622AB
:1012600090918722906105C080918622909187227B
:101270009460809386229093872241E001C040E0F1
:10128000842FCDB7DEB7EEE00C946340FC010097ED
:1012900009F0199508951092AC221092AD22109287
:1012A000B0221092B1221092AE221092AF22109270
:1012B000B2221092B32208958091AE229091AC2276
:1012C000892B41F0E0916C22F0916D22309711F062
:1012D00080E019958091AF229091AD22892B41F049
:1012E000E0916C22F0916D22309711F081E0199518
:1012F0000895613069F58091B5228F5F8093B522A2
:10130000813039F44093B6225093B7221092BA221A
:101310000CC08091B6229091B722480F591F569564
:1013200047954093B6225093B7228091B5228430DE
:1013300031F41092B52281E08093BA2208958FB7DC
:10134000F894E0E0F2E09081946090838FBF08957C
:10135000623061F58091B4228F5F8093B422813036
:1013600039F44093B8225093B9221092BB220CC09A
:101370008091B8229091B922480F591F56954795F0
:101380004093B8225093B9228091B422843031F432
:101390001092B42281E08093BB2208958FB7F89415
:1013A000E0E0F2E09081986090838FBF08958FB75E
:1013B000F8949091BB22992329F01092BB228FBF01
:1013C00081E008958FBF80E008958FB7F8949091E1
:1013D000BA22992329F01092BA228FBF81E0089592
:1013E0008FBF80E008951F93CF93DF93CDB7DEB713
:1013F0002B97CDBFDEBFBE016F5F7F4F80E092E0D5
:101400000E942F24AE01485F5F4F61E080E092E0D0
:101410000E948B248A819B819F7890619B8396E0B8
:101420009D83817E80618A831C82BE016F5F7F4FB6
:1014300080E092E00E94DE2369E779E080E092E0BC
:101440000E94E12111E0188719868A85807F8160DA
:101450008A87AE01485F5F4F61E080E092E00E94C2
:101460005224188788E08987AE01485F5F4F62E0A9
:1014700080E092E00E94522480E092E00E943722B5
:101480002B96CDBFDEBFDF91CF911F910895CF93F3
:10149000DF93C091B822D091B922BE0180E090E0E4
:1014A0000E94FA3EC53AD14080F021E836E242E49B
:1014B0005DEB0E94883F23E333E345E552E40E945D
:1014C000653E0E94C93E862F0FC02DE231E24FE9F2
:1014D0005DEB0E94883F23E333E342E852E40E943D
:1014E000653E0E94C93E862FDF91CF91089580917D
:1014F000B6229091B7220895BF92CF92DF92EF92D9
:10150000FF920F931F93CF93DF931F92CDB7DEB758
:1015100088E0E0E0F6E0868380E090E001968832A3
:101520009105E1F788E0E0E0F6E0858380E090E077
:10153000019688329105E1F70F2EFBE2BF2EF02DC8
:10154000B98280EA99E00E94F519C12CD12C76016C
:1015500000E012E12AE730E043E0BE016F5F7F4F19
:1015600080EA99E00E942A1A00E616E0FF24F3942C
:10157000F801F682B982BE016F5F7F4F80EA99E081
:101580000E94451AF801F682E0EAF9E0818185FFC0
:10159000FDCF80EA8093A009E0EAF9E0818186FF2F
:1015A000FDCFE0EAF9E080E481838081BE016F5FD6
:1015B0007F4F80EA99E00E945B1A8BE28983BE012B
:1015C0006F5F7F4F80EA99E00E94451A81E0E0E674
:1015D000F6E08683E0EAF9E0818185FFFDCF86EAC7
:1015E0008093A009E0EAF9E0818186FFFDCFE0EA7F
:1015F000F9E080E481838081BE016F5F7F4F80EAE4
:1016000099E00E945B1A8BE28983BE016F5F7F4F76
:1016100080EA99E00E94451A81E0E0E6F6E08683E0
:10162000E0EAF9E0818185FFFDCF88EC8093A00995
:10163000E0EAF9E0818186FFFDCFE0EAF9E080E4AD
:1016400081838081BE016F5F7F4F80EA99E00E94B5
:101650005B1A8BE28983BE016F5F7F4F80EA99E05E
:101660000E94451A81E0E0E6F6E08683E0EAF9E0D0
:10167000818185FFFDCF82EA8093A009E0EAF9E04D
:10168000818186FFFDCFE0EAF9E080E481838081FB
:10169000BE016F5F7F4F80EA99E00E945B1A8BE288
:1016A0008983BE016F5F7F4F80EA99E00E94451AEF
:1016B00081E0E0E6F6E08683E0EAF9E0818185FFFB
:1016C000FDCF8FE28093A009E0EAF9E0818186FFF7
:1016D000FDCFE0EAF9E080E481838081BE016F5FA5
:1016E0007F4F80EA99E00E945B1A8BE28983BE01FA
:1016F0006F5F7F4F80EA99E00E94451A81E0E0E643
:10170000F6E08683E0EAF9E0818185FFFDCF88EF8E
:101710008093A009E0EAF9E0818186FFFDCFE0EA4D
:10172000F9E080E481838081BE016F5F7F4F80EAB2
:1017300099E00E945B1A8BE28983BE016F5F7F4F45
:1017400080EA99E00E94451A81E0E0E6F6E08683AF
:10175000E0EAF9E0818185FFFDCF1092A009E0EA7F
:10176000F9E0818186FFFDCFE0EAF9E080E4818342
:101770008081BE016F5F7F4F80EA99E00E945B1A13
:101780008BE28983BE016F5F7F4F80EA99E00E9400
:10179000451A81E0E0E6F6E08683E0EAF9E081813F
:1017A00085FFFDCF81E28093A009E0EAF9E0818125
:1017B00086FFFDCFE0EAF9E080E481838081BE010D
:1017C0006F5F7F4F80EA99E00E945B1A8BE289830A
:1017D000BE016F5F7F4F80EA99E00E94451A81E069
:1017E000E0E6F6E08683E0EAF9E0818185FFFDCF5F
:1017F00081E88093A009E0EAF9E0818186FFFDCFCE
:10180000E0EAF9E080E481838081BE016F5F7F4F71
:1018100080EA99E00E945B1A8BE28983BE016F5FC8
:101820007F4F80EA99E00E94451A81E0E0E6F6E009
:101830008683E0EAF9E0818185FFFDCF81E2809334
:10184000A009E0EAF9E0818186FFFDCFE0EAF9E056
:1018500080E481838081BE016F5F7F4F80EA99E0E1
:101860000E945B1A8BE28983BE016F5F7F4F80EA23
:1018700099E00E94451A81E0E0E6F6E08683E0EA1E
:10188000F9E0818185FFFDCF8FEA8093A009E0EA2E
:10189000F9E0818186FFFDCFE0EAF9E080E4818311
:1018A0008081BE016F5F7F4F80EA99E00E945B1AE2
:1018B0000F90DF91CF911F910F91FF90EF90DF90EC
:1018C000CF90BF900895AC0183709927892B71F553
:1018D0009A013695279536952795ABE7B4E10E9496
:1018E00027409695879564E6689F9001699F300D23
:1018F000112442175307E1F49A01329522952F7073
:1019000023273F702327AEE3BAE00E94274020E957
:1019100031E0829FB001839F700D929F700D112462
:1019200081E04617570729F080E0089580E0089588
:1019300081E008950F931F93CF93DF93FC01808183
:101940008C3358F581818C3350F58281883148F58C
:1019500014811C3040F503810F3138F5C581D681E3
:10196000CE01B1DF282F30E0F901EE0FFF1F2E0F5F
:101970003F1FF901EE0FFF1FEE0FFF1FE10FF11DDB
:10198000ED55FE4D8081081790F4C25BD74081E091
:10199000C838D10568F080E00BC080E009C080E065
:1019A00007C080E005C080E003C080E001C080E0A7
:1019B000DF91CF911F910F9108952F923F924F92F7
:1019C0005F926F927F928F929F92AF92BF92CF92CF
:1019D000DF92EF92FF920F931F93CF93DF9300D08C
:1019E0001F92CDB7DEB71A0122EB37E0FA0125834B
:1019F0003683148220E831E541E050E00E94FF3F49
:101A000049015A0169837A838B839C8369017A0136
:101A10000F2EFCE34F2E512C612C712CF02DA301C5
:101A200092010E94FF3FF101608369817A818B817D
:101A30009C8120E13EE040E050E00E94FF3F122FF9
:101A4000A30192010E94FF3FF10121831283C5018E
:101A5000B4016C5F7F4F8F4F9F4F27E030E040E035
:101A600050E00E94FF3FF10167830DE611E00F2E69
:101A7000FEE68F2EF02D992493940AC0C41AD50A3D
:101A8000E60AF70AFFEFAF1ABF0AF101A582B68294
:101A9000F101A580B680C50116DF882319F0482D15
:101AA000592D02C0402F512F60E070E0C416D506BA
:101AB000E606F70618F7282F30E0F1016481F901F6
:101AC000EE0FFF1FE20FF31FEE0FFF1FEE0FFF1FC2
:101AD000E60FF11DED55FE4D808190E0A0E0B0E0F5
:101AE000C816D906EA06FB0610F16F5FA901440F7C
:101AF000551F240F351F220F331F220F331FC81A03
:101B0000D90AEA0AFB0AF901E60FF11DED55FE4D6F
:101B1000808190E0A0E0B0E041E0460FC816D90611
:101B2000EA06FB0610F0642FEACFF1016483F101AD
:101B3000C3822496CDBFDEBFDF91CF911F910F915D
:101B4000FF90EF90DF90CF90BF90AF909F908F90DD
:101B50007F906F905F904F903F902F9008958F925D
:101B60009F92AF92BF92CF92DF92EF92FF920F932C
:101B70001F936B017C01522F4423C4F030E0ACE38F
:101B8000B0E00E942740C60ED71EE81EF91EA42F03
:101B9000BB27A7FDB09520E13EE00E9436406C0DCA
:101BA0007D1D8E1D9F1DA80108DF1CC0A42FBB2713
:101BB000A7FDB09520E13EE00E9436404B015C015C
:101BC000252F30E0ACE3B0E00E942740861A970A48
:101BD000A80AB90AC501B4016C0D7D1D8E1D9F1D9B
:101BE000A801EBDE1F910F91FF90EF90DF90CF9057
:101BF000BF90AF909F908F900895AF92BF92CF9279
:101C0000DF92EF92FF920F931F93CF93DF935C01CC
:101C100091DE882309F46FC0F5011481C581D68156
:101C2000A381B0E020E831E541E050E00E943C4073
:101C30006B017C01228130E0A0E1BEE00E942740E0
:101C4000C60ED71EE81EF91E8081C80ED11CE11CED
:101C5000F11C218130E0ACE3B0E00E942740C60EC9
:101C6000D71EE81EF91E112309F1CE012CDE90E0EB
:101C7000FC01EE0FFF1F8E0F9F1FFC01EE0FFF1FD9
:101C8000EE0FFF1F1150DF01A10FB11DAD55BE4D6D
:101C9000AC91B0E020E831E541E050E00E943C40EA
:101CA000C60ED71EE81EF91E1111ECCFC33BF7E09C
:101CB000DF0730F10DE611E00F2EFEE6AF2EF02D1E
:101CC000BB24B3942197CE01FEDD882319F0AA2D01
:101CD000BB2D02C0A02FB12F20E831E541E050E03C
:101CE0000E943C40C60ED71EE81EF91EC23B87E08C
:101CF000D80741F70AC060E070E080E090E009C0DA
:101D00006C2D7D2D8E2D9F2D04C06C2D7D2D8E2D47
:101D10009F2DDF91CF911F910F91FF90EF90DF905A
:101D2000CF90BF90AF9008958F929F92AF92BF9245
:101D3000CF92DF92EF92FF92CF93C62FB42E5DDF4A
:101D40006B017C016115710581059105D1F1CC23F1
:101D5000DCF02B2D30E0ACE3B0E00E9427404B01DB
:101D60005C01AC2FBB27A7FDB09520E13EE00E94AF
:101D70003640860E971EA81EB91EC701B601681907
:101D800079098A099B0920C02B2D30E0ACE3B0E033
:101D90000E9427404B015C01AC2FBB27A7FDB095EB
:101DA00020E13EE00E943640A5019401261B370B3E
:101DB000480B590BCA01B9016C0D7D1D8E1D9F1D6D
:101DC00003C060E070E0CB01CF91FF90EF90DF9017
:101DD000CF90BF90AF909F908F900895AF92BF9299
:101DE000CF92DF92EF92FF920F931F93CF93DF93E7
:101DF000EC018B015A01CB0100DF6B017C01CE01AC
:101E0000FCDE6C157D058E059F0528F49C2F8D2F1B
:101E1000E801092F182F8D819E81F80125813681D7
:101E2000821B930BF501858396832C81822F90E092
:101E3000F8013481831B910952F4245F2C83F5014E
:101E400085819681009719F00197858396838C810F
:101E5000F8019481891BF5018483FB808F2D90E02C
:101E6000F8012381821B9109EAF48D819E812BDD8B
:101E700090E02C81FC01EE0FFF1F8E0F9F1FFC01D5
:101E8000EE0FFF1FEE0FFF1FED55FE4DE20FF11D90
:101E900031978081F80EFB82F5018481882311F04F
:101EA000815084838B81F8019381891BF5018383A1
:101EB0002A81822F90E0F8013281831B910942F43C
:101EC000285E2A83F5018381882311F08150838362
:101ED0008A81F8019281891BF50182832981822FF1
:101EE00090E0F8013181831B910942F4245C29833D
:101EF000F5018281882311F0815082838981F80164
:101F00009181891BF50181832881822F90E0F8015E
:101F10003081831B910942F4245C2883F50181817F
:101F2000882311F0815081838881F8019081891B79
:101F3000F5018083DF91CF911F910F91FF90EF907A
:101F4000DF90CF90BF90AF900895EF92FF920F93E4
:101F50001F93CF93DF93EC0188818F5F8C3311F057
:101F6000888340C0188289818F5F8C33D1F58A8144
:101F70008F5F8831A1F5FB80EC800D811E81F39489
:101F8000C8019927A0DC90E0FC01EE0FFF1F8E0F27
:101F90009F1FFC01EE0FFF1FEE0FFF1FEE0DF11D47
:101FA000ED55FE4D8081F81211C081E08E0D8C3010
:101FB00059F4093388E0180730F40F5F1F4F0D8381
:101FC0001E8380E001C080E08C83F12C8F818F5FC5
:101FD000873011F08F8301C01F82FB8280E08A83EB
:101FE00080E08983DF91CF911F910F91FF90EF9057
:101FF0000895CF93DF9300D01F92CDB7DEB78FEF58
:1020000080937000809371008093720080937300BE
:1020100080937400809375008093760064E081E47F
:1020200090E00E94C5246CE170E082E00E942525CA
:102030008A836DE170E082E00E9425258983898191
:102040009A81019621F480E493E289839A838981BD
:102050009A818B839C83E0E6F0E082838C8183838A
:102060008FB7F894E0E5F0E09081926090838FBFA5
:10207000818181FFFDCF8FB7F894A0E5B0E016967F
:102080009C911697997F16969C931697E0E6F0E040
:1020900090E895839BEB968316969C911697946097
:1020A00016969C939081916090838FBF61E080E44D
:1020B00090E00E94C5248FB7F894E0E5F0E09081AD
:1020C0009E7F90838FBF2496CDBFDEBFDF91CF91DF
:1020D00008959FB7F894E82FF0E0E059FF4F60951E
:1020E0008081682360839FBF08959FB7F894E82F8D
:1020F000F0E0E059FF4F8081682B60839FBF089517
:10210000863011F468E101C060E0E0E5F0E0818133
:1021100081FD24C08FB7F8949081926090838FBF27
:10212000818181FFFDCF8FB7F894A0E5B0E01696CE
:102130009C911697997F16969C931697E0E6F0E08F
:1021400090E895839BEB968316969C9116979460E6
:1021500016969C939081916090838FBF636084E416
:1021600090E00E94C52460E480E0B3CF08957F92A0
:102170008F929F92AF92BF92CF92DF92EF92FF9297
:102180000F931F93CF93DF931F92CDB7DEB7082F26
:10219000192FE62EF42EB22E1AD28E2D8F70806B50
:1021A000E82E8BE28983BE016F5F7F4F80EA99E062
:1021B0000E94451A81E0E0E6F6E08683E0EAF9E075
:1021C000818185FFFDCFE092A009E0EAF9E08181FD
:1021D00086FFFDCFE0EAF9E080E481838081BE01E3
:1021E0006F5F7F4F80EA99E00E945B1A8F2D8F7797
:1021F00082958F708061E82E8BE28983BE016F5FCC
:102200007F4F80EA99E00E94451A81E0E0E6F6E01F
:102210008683E0EAF9E0818185FFFDCFE092A009A5
:10222000E0EAF9E0818186FFFDCFE0EAF9E080E4B1
:1022300081838081BE016F5F7F4F80EA99E00E94B9
:102240005B1A8F2D8F70F82E8BE28983BE016F5F32
:102250007F4F80EA99E00E94451A81E0E0E6F6E0CF
:102260008683E0EAF9E0818185FFFDCFF092A00945
:10227000E0EAF9E0818186FFFDCFE0EAF9E080E461
:1022800081838081BE016F5F7F4F80EA99E00E9469
:102290005B1AE02EF12E0F2EFBE27F2EF02D00EACE
:1022A00019E00F2EF0E6CF2EF6E0DF2EF02DAA2457
:1022B000A3946894882486F8F70191907F0179822D
:1022C000BE016F5F7F4FC8010E94451AF601A582CB
:1022D000F801818185FFFCCF9082F801818186FF22
:1022E000FCCF81828081F601A682BE016F5F7F4FA5
:1022F000C8010E945B1ABA94F9F60F90DF91CF9152
:102300001F910F91FF90EF90DF90CF90BF90AF9013
:102310009F908F907F900895FF920F931F93CF937C
:10232000DF931F92CDB7DEB7F82E062F142F62D1A0
:102330008F2D8F70806BF82E8BE28983BE016F5FCB
:102340007F4F80EA99E00E94451A81E0E0E6F6E0DE
:102350008683E0EAF9E0918195FFFDCFF092A00934
:10236000E0EAF9E0818186FFFDCFE0EAF9E080E470
:1023700081838081BE016F5F7F4F80EA99E00E9478
:102380005B1A802F8F7782958F708061F82E8BE299
:102390008983BE016F5F7F4F80EA99E00E94451AF2
:1023A00081E0E0E6F6E08683E0EAF9E0818185FFFE
:1023B000FDCFF092A009E0EAF9E0818186FFFDCF30
:1023C000E0EAF9E080E481838081BE016F5F7F4FA6
:1023D00080EA99E00E945B1A0F708BE28983BE014C
:1023E0006F5F7F4F80EA99E00E94451A81E0E0E646
:1023F000F6E08683E0EAF9E0818185FFFDCF009376
:10240000A009E0EAF9E0818186FFFDCFE0EAF9E08A
:1024100080E481838081BE016F5F7F4F80EA99E015
:102420000E945B1A8BE28983BE016F5F7F4F80EA57
:1024300099E00E94451A81E0E0E6F6E08583E0EA53
:10244000F9E0818185FFFDCF1093A009E0EAF9E072
:10245000818186FFFDCFE0EAF9E080E4818380811D
:1024600081E0E0E6F6E08683BE016F5F7F4F80EAA1
:1024700099E00E945B1A0F90DF91CF911F910F910D
:10248000FF9008950F931F93CF93DF931F92CDB7C3
:10249000DEB78CEB92E296D02FD88BE28983BE0117
:1024A0006F5F7F4F80EA99E0F0D781E0E0E6F6E0E9
:1024B0008683E0EAF9E0818185FFFDCF80E48093A7
:1024C000A009E0EAF9E0818186FFFDCFE0EAF9E0CA
:1024D00080E481838081BE016F5F7F4F80EA99E055
:1024E000EAD700E00AC040E0612F802F15DF1F5FB0
:1024F0001038C9F70F5F043011F010E0F4CF0F90DF
:10250000DF91CF911F910F910895FF920F931F9329
:10251000CF93DF93182F042F882374F1603260F576
:10252000F62EF694F694F6942F2D30E03195219501
:102530003109220F331F220F331F220F331F260FA3
:10254000311DE1E0F0E0EF0102C0CC0FDD1F2A9564
:10255000E2F7682F8F2D5DD0013021F028F0023096
:1025600031F006C08C2B04C0C0958C2301C08C2791
:10257000482F612F8F2DD0DEDF91CF911F910F91CA
:10258000FF90089546C008950F931F93CF93DF9354
:10259000D82F162F042FC22F3CD0C13021F028F0A5
:1025A000C23031F006C0802B04C00095802301C0EA
:1025B0008027482F612F8D2FAFDEDF91CF911F91A4
:1025C0000F9108958093BC249093BD240895DC015D
:1025D000E42FF0E080E8689FE00DF11D1124809168
:1025E000BC249091BD24E80FF91F8D918193215057
:1025F000E1F7089520E8829FC0011124FC01E60F55
:10260000F11D8091BC249091BD24E80FF91F4083F7
:10261000089520E8829FC0011124FC01E60FF11DFE
:102620008091BC249091BD24E80FF91F808108950A
:10263000FF920F931F93CF93DF93E42FF0E0E80F07
:10264000F11DE138F10514F040E8481B442309F47A
:1026500059C0C62FC695C695C695EC2FF0E0F195EA
:10266000E195F109EE0FFF1FEE0FFF1FEE0FFF1FA9
:10267000DF01A60FB11DBD01E1E0F0E0DF0102C006
:10268000AA0FBB1F6A95E2F70A2F213049F068F0C4
:10269000223009F037C0D42FFF24FA94F80E26C058
:1026A000D42FFF24FA94F80E07C0D42FFF24FA94F5
:1026B000F80E0A2F00950DC01F2D1D0F612F8C2FB6
:1026C00061DF482F402B612F8C2F26DED150A1F7E0
:1026D00019C01F2D1D0F612F8C2F54DF482F402351
:1026E000612F8C2F19DED150A1F70CC01F2D1D0FAB
:1026F000612F8C2F47DF482F4027612F8C2F0CDE56
:10270000D150A1F7DF91CF911F910F91FF900895C4
:10271000EF92FF920F931F93CF93DF93082FF22E28
:10272000442309F444C09FEF960F940F691303C02C
:10273000422FEBDE3CC09F3108F09FE1162F16952B
:1027400016951695E92EE694E694E6946770EFEFF9
:10275000F0E0AF0102C0440F551F6A95E2F7977091
:10276000C7E0D0E0C91BD109CF0102C0959587957C
:10277000CA95E2F7EC011E1106C048232F2D602FE9
:10278000812F02DF14C02F2D602F812FFDDE1F5FF0
:102790001E1540F42F2D4FEF602F812FF5DE1F5FA8
:1027A0001E15C0F32F2D4C2F602F8E2DEDDEDF91E7
:1027B000CF911F910F91FF90EF900895FF920F938B
:1027C0001F93CF93DF93C82FD62FF42E122F202FD5
:1027D0002FDF6FEF610F6D0F202F4F2D8C2F28DF14
:1027E000202F412F6D2F8C2F93DF8FEF8F0D202FF8
:1027F000412F6D2F8C0F8CDFDF91CF911F910F91A7
:10280000FF900895FF920F931F93CF93DF93D82FDC
:10281000142F222361F0C22FFF24FA94F60E6F2D9D
:102820006C0F202F412F8D2F03DFC150C1F7DF9197
:10283000CF911F910F91FF9008955F926F927F92B9
:102840008F929F92AF92BF92CF92DF92EF92FF92C0
:102850000F931F93CF93DF93B82E962E142FA22E93
:10286000411103C0422F51DE74C0C42FD0E0CC0F01
:10287000DD1FD195C195D1092396C62ED82EE82EFD
:10288000FF24F394802F8370682E802F8C70782E15
:10289000802F8073882E007C5E2C5B18662069F088
:1028A0002A2D4F2D6C2D812F8B0D32DF2A2D41E0EB
:1028B000410F692D611B8E2D2BDF772069F02A2DAA
:1028C0004F2D6C2D8B2D811B23DF2A2D41E0410FD5
:1028D000692D611B8D2D1CDF882061F02A2D4F2D65
:1028E000692D8B2D811B14DF2A2D41E0410F692DAD
:1028F0008D2D0EDF002361F02A2D4F2D692D812FA4
:102900008B0D06DF2A2D41E0410F692D8E2D00DF52
:10291000DD2354F4E52DF0E0EE0FFF1FEE0FFF1F57
:102920003696CE0FDF1F0CC0E52DF0E0E11BF1095C
:10293000EE0FFF1FEE0FFF1F3A96CE0FDF1F115055
:1029400081E08F0DE394DA94CA941F1510F0F82EED
:10295000A3CFDF91CF911F910F91FF90EF90DF9068
:10296000CF90BF90AF909F908F907F906F905F902F
:102970000895BF92CF92DF92EF92FF920F931F9331
:10298000CF93DF93EC01F62EE980E694E694E6948B
:10299000D42ED694D694D6948A81882341F081305F
:1029A00009F03BC0EE20C9F100E010E01BC0E110CF
:1029B00020C033C0909FF001919FF00D1124EC0DC9
:1029C000F11D2B813C81E20FF31F44916C2D6F0DA3
:1029D0008B2DA2DCC3949881C91660F30F5F1F4F43
:1029E0000E15D8F498819923C9F3C12CBD2CB00ED3
:1029F000E1CF00E010E028816D2D600F209FC00125
:102A0000219F900D1124EB81FC814F2D8E0F9F1F74
:102A1000AEDB0F5F1F4F0E1570F3DF91CF911F914B
:102A20000F91FF90EF90DF90CF90BF900895EF92BD
:102A3000FF920F931F93CF93DF93EC011D818BEADD
:102A4000189F112D112416958E81811302C06623C3
:102A500049F000E028E140E868E080E0D3DE81E072
:102A60008093BE241E8300E028E144E068E080E01B
:102A7000C9DE4D818BEA489F812D11248695982FC0
:102A8000990F890F481B440F440F440F485F60E0C3
:102A900081E090E26EDF8091BE24882399F1F12ECF
:102AA000FF0CF10E012F10E00F5F1F4FC801880FC0
:102AB000991F080F191F8F2D90E08017910704F5BB
:102AC0008C81F816E8F46894EE24E3F8EF2DF0E03A
:102AD000EE0FFF1F8A819B81E80FF91F20E130E292
:102AE0004E2D65E0808191810FD4F3948F2D90E07D
:102AF000801791072CF488E0E80E8C81F81630F3EB
:102B00001092BE24DF91CF911F910F91FF90EF9013
:102B100008950F93CF93DF93EC0100E020E240E8AB
:102B200060E080E06FDE20E130E240E060E088813C
:102B30009981EAD361E0CE017ADFDF91CF910F91E5
:102B400008956D3071F118F4683031F02DC066329F
:102B5000C9F0683219F028C08EEF0895FC01658134
:102B6000462F50E0248130E02150310942175307AD
:102B700011F4158203C06F5FFC01658360E057DFCD
:102B80008FEF0895FC012581222319F02150258320
:102B900004C0FC0124812150258360E048DF8FEFD1
:102BA0000895FC01858108958FEF08950F936623A2
:102BB00039F0FC01448560E086E090E2DADE07C08F
:102BC00000E028E044E0FC01648580E01BDE0F911A
:102BD0000895DF92EF92FF920F931F93CF93DF93AD
:102BE000CDB7DEB76897CDBFDEBF182FD62E00E079
:102BF00027E040E868E180E005DE2FE43BE440E0C8
:102C00002B833C834D839E012E5F3F4FAE014F5F70
:102C10005F4F60E170E2CE010396A4D3898140E862
:102C200050E0481B51099A0112F42F5F3F4F790180
:102C3000F594E7941123C1F020E130E248E16E2DD4
:102C4000CE01039638D3DD2039F06CEF6E0D48E1EC
:102C500086E090E28EDE0FC000E028E044E068E10C
:102C60008CEF8E0DCFDD07C000E027E044E168E186
:102C70008CEF8E0DC7DD6896CDBFDEBFDF91CF91A3
:102C80001F910F91FF90EF90DF900895CF92DF9208
:102C9000EF92FF920F93CF93DF93CDB7DEB72997D3
:102CA000CDBFDEBF7C01662381F000E027E040E875
:102CB000DC011C966C9180E0A5DD20E130E2F7019B
:102CC000448565E0808191811FD3D7011D968C9149
:102CD0001D97882339F01C964C916CE78BE090E2AD
:102CE00048DE07C000E028E044E0F70164858CE797
:102CF00089DDD70112968C911297813039F514969F
:102D00008C9114978F9313968C918F9388EC91E20A
:102D10009F938F931F9289E08F93FE0131966F01ED
:102D2000DF92EF930E94804000E027E042E3D7016A
:102D30001C966C918AE466DD20E130E2F70144855F
:102D40006AE4C601B8D2CDBFDEBF20C081111EC06B
:102D5000D7011596DC90159700E027E042E31C961A
:102D60006C918AE44FDDED2DF0E0EE0FFF1FD701EF
:102D700013968D919C911497E80FF91F20E130E292
:102D80001C964C916AE480819181BED22996CDBF78
:102D9000DEBFDF91CF910F91FF90EF90DF90CF904A
:102DA0000895CF92EF92FF920F931F93FC014083FF
:102DB0005183628300871187E286F386C486158675
:102DC00006831783611104C023833483058302C003
:102DD000038314831F910F91FF90EF90CF9008957C
:102DE000FC0110861582148281E081870895CF93BB
:102DF000DF93DB0114962C911497233048F5220FB2
:102E0000220F220FEC012C8714963C91149731115C
:102E100004C08D939C93119711C0ED91FC91119773
:102E2000323038F021E00684F785E02D2F5F231340
:102E3000FACF86879787EC01E88BF98B12968D93F2
:102E40009C93139714968C9114978F5F14968C9380
:102E5000DF91CF910895EF92FF920F931F93CF933D
:102E6000DF937C0100E020E240E860E080E0CADC23
:102E7000F70184818823B1F0C081D18110E061E045
:102E8000CE0104DF0E84DF85C02D1F5FF701848132
:102E90001817A8F360E081E09CDE61E0F701808113
:102EA000918184DEDF91CF911F910F91FF90EF9080
:102EB0000895CF93DF93EC016D3009F462C020F4E4
:102EC000683009F482C094C0663279F1683209F042
:102ED0008FC08D85882309F48EC08A81813081F46A
:102EE0008B819C81288539852817390724F401971F
:102EF0008B839C8314C08A859B858B839C830FC0A6
:102F000081110DC04D81242F30E08885998582176D
:102F100093071CF441504D8302C08A858D8360E085
:102F2000CE01B4DE8FEF90E06BC08D85882309F46D
:102F300065C08A81813081F48B819C812A853B85A3
:102F40008217930724F401968B839C8314C0888591
:102F500099858B839C830FC081110DC04D81242FD7
:102F600030E08A859B85281739071CF44F5F4D8315
:102F700002C088858D8360E0CE0188DE8FEF90E00F
:102F80003FC08D858823C9F08A81813049F41D8630
:102F900060E0CE017BDE8B819C818E839F8330C07D
:102FA000811113C01D8660E0CE0170DE2D8130E0FE
:102FB0002E833F83822F932F23C081E08D8760E093
:102FC000CE0164DE8FEF90E01BC01D868A818130C8
:102FD00029F48E819F818B839C8304C0811102C060
:102FE0008E818D8360E0CE0151DE8EEF90E008C0CF
:102FF0008FEF90E005C08FEF90E002C08FEF90E080
:10300000DF91CF910895EF92FF920F931F93CF938B
:10301000DF938C017A01DC0114968C91149788233C
:1030200009F4DAC019968C911997882339F1ED913A
:10303000FC9120E08281813059F483819481A22F18
:10304000B0E0AA0FBB1FAE0DBF1D8D939C930AC0AD
:10305000A22FB0E0AA0FBB1FAE0DBF1D858190E06F
:103060008D939C930684F785E02D2F5FD8011496ED
:103070008C9114972817F0F219961C92F801C081D0
:10308000D18125818FEF820F8E3F38F480E00E844E
:10309000DF85C02D8F5F8213FACFD80118968C91EF
:1030A0008823F9F0CE0105DFF801868397838E3FF0
:1030B000910521F410868FEF90E099C08F3F910524
:1030C00009F48DC0D801258130E0220F331FF701AC
:1030D000E20FF31F8083918318961C928FEF90E08C
:1030E00086C06D3009F46CC018F4683031F07AC0D5
:1030F0006632B9F1683221F075C08EEF90E077C08A
:103100002F3F59F4F801158260E081E062DD61E053
:10311000CE014CDD8FEF90E06AC030E0D80114960C
:103120008C9190E001972817390774F460E0CE0184
:103130003DDDF80185818F5F858361E08E859F8508
:1031400035DD8FEF90E053C060E0CE012FDD8FEFD3
:10315000D80115968C9361E081E03BDD8FEF90E024
:1031600046C02F3F71F460E081E033DDF8018481D7
:103170008150858361E08281938118DD8FEF90E03B
:1031800036C0222389F060E0CE0110DDD80115960B
:103190008C911597815015968C9361E08889998957
:1031A00005DD8FEF90E023C060E0CE01FFDC8FEF04
:1031B000F801858361E081E00CDD8FEF90E017C0BE
:1031C0002F3F99F06DE0CE0174DE81E0D8011896B2
:1031D0008C938FEF90E00BC08EEF90E008C08FEFE4
:1031E00090E005C08FEF90E002C08DEF90E0DF919E
:1031F000CF911F910F91FF90EF900895AF92BF92E2
:10320000CF92DF92EF92FF920F931F93CF93DF93B2
:10321000C82FD62EA42E790100E0F9012481438124
:103220006A2D8D2DEFDAF7019081911139C08381DC
:10323000A82FA695A695A695877009F0AF5FF70110
:10324000C480AC9DD0011124EC2FF0E0E7018D810A
:10325000E81BF109AE9F9001AF9F300DBE9F300D6E
:1032600011240980DA81C02DC20FD31FF701B3806A
:10327000BB2099F000E010E0812F8D0D912F977009
:1032800019F4FE010491219600231CF441E06A2DFB
:103290003CD9000F1F5F1B11EFCFA394CA9431F7E5
:1032A000DF91CF911F910F91FF90EF90DF90CF9022
:1032B000BF90AF900895DF92EF92FF920F931F930C
:1032C000CF93DF93E42E8901EC01F62ED62E89915F
:1032D0008A3031F4F80184818F5FE80EFD2C09C03B
:1032E0008D3039F098014E2D6F2D88DFF8018381E4
:1032F000F80E88818111EBCFDF91CF911F910F9153
:10330000FF90EF90DF900895DF92EF92FF920F937E
:103310001F93CF93DF93EC01E42E8901FC0184918C
:103320008823C1F0F62ED62E8A3031F4F80184813C
:103330008F5FE80EFD2C09C08D3039F098014E2DBD
:103340006F2D5CDFF8018381F80E2196FE018491D8
:103350008111EACFDF91CF911F910F91FF90EF90F4
:10336000DF900895FB01A381B481FC017B2F90E0E5
:1033700061E081918A3019F47B0F90E006C08D30B6
:1033800021F09A0F691708F4692F80818111F1CF1C
:10339000FA016083F90170830895CF93DF93FC01F4
:1033A000709620E030E0C62FD0E0DE01022E02C091
:1033B000B595A7950A94E2F7A0FD50832F5F3F4F84
:1033C00031962830310589F740FF0AC041FF03C01C
:1033D000FC01658302C0FC016683FC01618302C0BD
:1033E000FC016283DF91CF910895803A28E0920733
:1033F00029F460E183E00C9469100895803B28E093
:10340000920729F460E283E00C9469100895803AF1
:1034100029E0920729F460E184E00C946910089592
:10342000803B29E0920729F460E284E00C94691063
:103430000895803A2AE0920729F460E185E00C942F
:1034400069100895803A9B4021F460E186E00C9475
:10345000691008950F931F93CF93DF9300D000D08E
:10346000CDB7DEB709831A832B833C834D831E823D
:10347000BE016F5F7F4F0E941B2D2696CDBFDEBF22
:10348000DF91CF911F910F910895FB018081E82F6B
:10349000E695E695E69540E2E49FF0011124FA5F97
:1034A000877021E030E0A90102C0440F551F8A95C2
:1034B000E2F746830895FB018081E82FE695E695C3
:1034C000E69540E2E49FF0011124FA5F877021E065
:1034D00030E0A90102C0440F551F8A95E2F74583E9
:1034E00008951092D4291092E0291092E12981EADE
:1034F0008093D62980E28093D7291092D829109200
:10350000D9291092DA291092DB2982E090E0809389
:10351000DC299093DD291092DE291092DF2980E0CA
:1035200092ECA1E0B0E08093E2299093E329A0938C
:10353000E429B093E5291092E6291092E72988E062
:103540008093E8298091D4298F5F8093D42981E0EA
:1035500008958091D42981508093D4290895809131
:10356000D32981508093D3298091D3291092D229D5
:10357000089580E0089580E008950895FF920F93E4
:103580001F93CF93DF938091C22481119BC00E942F
:103590003132882351F0C091C324D091C4240E94B9
:1035A0003E32C817D90759F48DC0C091C324D091B9
:1035B000C4240E943932C817D90709F483C0DFB781
:1035C000F894C091C524EC2FF0E0EE0FFF1FEA53F2
:1035D000FB4D80819181892B09F58091BF249091C9
:1035E000C02401968093BF249093C0240E9431325E
:1035F000811107C08091BF249091C0248436910529
:1036000058F00E943132882349F08091BF24909174
:10361000C0248032934010F4DFBF54C01092BF2406
:103620001092C0248091C124811106C081E0C11193
:1036300080E08093C52404C081E0C11180E0C82FE0
:1036400081E08093C224DFBFD0E0FE01EE0FFF1FB8
:10365000EA53FB4DFF24F3948081918180349140A3
:1036600009F4F12CFF2091F00E943132882339F0C7
:103670000E943E328093C3249093C4240BC00E94C6
:1036800039328093C3249093C42404C01092C3247D
:103690001092C424FE01EE0FFF1FEA53FB4D208160
:1036A000318180E491E0C89FA001C99F500DD89F4F
:1036B000500D112446535B4D08E61BE16F2D81E848
:1036C0000E94F032DF91CF911F910F91FF900895EA
:1036D000811115C02091C52481E090E0222311F0D2
:1036E00080E090E0FC01EE0FFF1FEA53FB4D1082DB
:1036F00011821092C1241092C22480E03FCF08951D
:1037000080E03CCF089580917D2B8823ECF4807677
:10371000803209F044C080917E2B813209F041C093
:103720008091832B9091842B0797E9F582EE99E2A3
:103730008093852B9093862B87E090E08093872B56
:103740009093882B81E008958076803271F5809186
:103750007E2B803219F08232D9F029C08091832BE0
:103760009091842B079729F58DEB9AE18093892B13
:1037700090938A2B82EE99E28093852B9093862BEF
:1037800087E090E08093872B9093882B81E00895C9
:1037900080917F2B81700E94E23581E0089580E066
:1037A000089580E0089580E0089580E0089580E025
:1037B000089580E008954FB7F89420914B273091F9
:1037C0004C27E0914D27F0E0EE0FFF1FE25BF84D34
:1037D00080819181821B930B4FBF0895ECDF21E024
:1037E000892B09F420E0822F08950F931F93CF9324
:1037F000DF934FB7F89450914D2780914A2781115C
:1038000010C020914B2730914C27C52FD0E0FE01EE
:10381000EE0FFF1FE25BF84D808191812817390779
:1038200018F44FBF80E022C010924B2710924C2713
:1038300081E0511180E080934D2781E080934A27F9
:103840004FBF80E0CBDF80E491E0C89FA001C99F1B
:10385000500DD89F500D11244E5A584D0DE61CE1C5
:1038600020E431E061E082E00E94F032DF91CF910C
:103870001F910F9108951092D3291092C224109293
:10388000C1241092C5241092C6241092C72410920D
:10389000C8241092C9241092C3241092C42480E03A
:1038A0006DDE10924A2710924D2710924E271092EB
:1038B0004F2710924B2710924C2780E096DF8823E9
:1038C00059F09091D3299F5F9093D3299091D32958
:1038D000913011F49093D22908950F931F93942F50
:1038E000811127C080914D27E1E08111E0E0611551
:1038F0007105A1F4F0E020E431E0E29FB001E39F24
:10390000700DF29F700D1124AB014E5A584D0DE60B
:103910001CE161E0892F0E94F0320BC0F0E0EE0F55
:10392000FF1FE25BF84D6083718310924A2780E0AD
:103930005CDF1F910F91089580E050CF0895FF92B2
:103940000F931F93CF93DF93FF24F3948091E82983
:10395000893009F0F12C60E070E0C0E4D1E03FB7BD
:10396000F89480914B2790914C2720914D273FBF91
:1039700030E0F901EE0FFF1FE25BF84D408151810D
:103980008417950730F08091D2298111E8CF90E01B
:103990001DC02C9FF0012D9FF00D3C9FF00D1124B8
:1039A000E80FF91FEE5AF84D20818B01022B01968A
:1039B00080934B2790934C2780E017DFFF2021F066
:1039C000702F6627F12CCBCF802F912FDF91CF91D5
:1039D0001F910F91FF90089580E0B1CF08959FB798
:1039E000F8948091C524E82FF0E0EE0FFF1FEA5312
:1039F000FB4D20813181203441E0340789F440912E
:103A0000C22441110DC04091C124411109C021E0DF
:103A10002093C124811120E02093C52420E030E0D0
:103A20009FBF80E491E0821B930B0895D8DF21E0D3
:103A3000892B09F420E0822F0895FF920F931F93A2
:103A4000CF93DF93F62E172F01E08091E82989307C
:103A500009F000E0C0E4D1E080E0E8DF811107C0B8
:103A60008091D2298111F8CF80E090E028C06FB713
:103A7000F8942091C52430E0F901EE0FFF1FEA53BE
:103A8000FB4D80819181AC014F5F5F4F408351833B
:103A90002C9FF0012D9FF00D3C9FF00D11248E0FF7
:103AA0009F1FFC01E653FB4DF0826FBF002329F0FE
:103AB000F12E110F110B00E0CFCF81E090E0DF91EC
:103AC000CF911F910F91FF900895BC0180E0B5CF79
:103AD0000895E091EF29F091F0290190F081E02D17
:103AE000228133812E0F3F1FFC014081E40FF11D25
:103AF000E217F307A0F481818430A1F0861306C099
:103B000014C081818430A1F08617A9F08081E80F6C
:103B1000F11DE217F307A8F380E090E0089580E03C
:103B200090E0089580E090E008958E2F9F2F0895F3
:103B300080E090E008958E2F9F2F089580917F2B35
:103B40008F770C94333208959091F129992381F164
:103B5000E091EF29F091F0290190F081E02D94811E
:103B6000891740F5E093ED29F093EE292281338106
:103B70002E0F3F1FE217F307F8F49181943061F4A0
:103B80009281981309C09381961306C0E093ED29A2
:103B9000F093EE2981E008959081E90FF11DE2177D
:103BA000F30758F3E093ED29F093EE2980E00895B0
:103BB00080E0089580E0089580E00895FF920F93DB
:103BC0001F93CF93DF93C82F60E0BEDFF82E8823CA
:103BD00081F1A091EF29B091F029EC2FF0E0EE0FE8
:103BE000FF1F12962D913C911397E20FF31F008156
:103BF0001181D8011696ED91FC9117971995682FB0
:103C00008C2FA2DFF82E8823A1F0C091ED29D0914E
:103C1000EE2965E0CE015DDFEC01009721F08A819D
:103C20000E94B133F6CFD8011296ED91FC91139713
:103C300019958F2DDF91CF911F910F91FF900895CE
:103C40001F93CF93DF93182F7FDF882341F1C0911B
:103C5000ED29D091EE2965E0CE013BDFEC01009724
:103C600049F04C815D816B818A810E944A328111C9
:103C7000F2CF15C0A091EF29B091F029812F90E0EB
:103C8000880F991F1296ED91FC911397E80FF91F79
:103C90000190F081E02D0190F081E02D1995DF91E8
:103CA000CF911F9108950C94BD310895CF938091C9
:103CB000F1298823C1F0E091EF29F091F0290190DA
:103CC000F081E02D8481882371F0C0E08C2F76DFB5
:103CD000CF5FE091EF29F091F0290190F081E02D84
:103CE0008481C81798F31092F12981E090E08093C5
:103CF000F2299093F329CF910895CF938091F129E0
:103D0000882341F1E091EF29F091F029A081B18160
:103D100014968C918823F1F0C0E08C2F90E0880FEE
:103D2000991F0280F381E02DE80FF91F0190F081C7
:103D3000E02D0084F185E02D309709F01995CF5FD3
:103D4000E091EF29F091F029A081B18114968C9136
:103D5000C81718F3CF910895EF92FF920F931F9316
:103D6000CF93DF931092872B1092882B1092892B80
:103D700010928A2B10928B2B10928C2B20917D2BE2
:103D800022230CF09AC28091832B9091842B009770
:103D900009F098C28EC22F7109F0B9C030917E2B04
:103DA000363089F0383009F4A6C03111B0C002971E
:103DB00041F462E070E082EF99E20E94413201E05A
:103DC000FBC100E0F9C120917F2B3091802B832F24
:103DD000992782309105A1F01CF4019739F081C038
:103DE00083309105F1F10F9769F17BC080912B2011
:103DF00090912C20DC016C9170E00E94413260C0F7
:103E0000E0912B20F0912C208189281708F06BC0BD
:103E1000C9019927880F991F880F991FE0912D20BC
:103E2000F0912E20E80FF91F80819181FC016281C1
:103E300073810E944132E091852BF091862B82E0C4
:103E400081833EC080912F2090913020009709F40B
:103E50004CC0DC0112966D917C9113970E94413207
:103E60002FC033272130310589F048F02230310549
:103E700009F42DC22330310509F42DC238C064E0A5
:103E800070E08AEC90E20E9441321AC080EC90E22D
:103E900029E0382FA2E9B0E2E82FF92F819190E0D4
:103EA0008D939D938E2F831B8217C0F3220F62E0A8
:103EB000620F6093902070E080E990E20E944132AE
:103EC0008091832B9091842B2091872B3091882B8C
:103ED0008217930770F48093872B9093882B01E0CF
:103EE0006BC100E069C100E067C100E065C100E0AE
:103EF00063C101E061C1019741F461E070E081EFCD
:103F000099E20E94413201E057C100E055C12130E1
:103F100009F040C030917E2B3A30E1F50197A1F5D0
:103F20008091F129882391F1C091812BD091822B2E
:103F3000E090EF29F090F029D701ED91FC91848178
:103F4000C81730F560E08C2FFFDD082F882309F4B7
:103F500033C1CE019927880F991FD7011296ED9191
:103F6000FC911397E80FF91F0190F081E02D068076
:103F7000F781E02D19958093EC2961E070E08CEEDB
:103F800099E20E94413218C100E016C100E014C15C
:103F900000E012C1223009F011C120917E2B2111C5
:103FA00006C1029789F48091812B0E94AB3290E088
:103FB0008093EA299093EB2962E070E08AEE99E21F
:103FC0000E94413201E0F8C000E0F6C02F7109F014
:103FD00091C080917E2B833009F4EBC018F48130BE
:103FE000B1F088C0853019F0893061F183C08091CB
:103FF000832B9091842B892B41F48EE99DE1809352
:10400000892B90938A2B01E0D7C000E0D5C0809126
:10401000832B9091842B892B89F480917F2B909115
:10402000802B019769F48091F2299091F3298D7F7B
:104030008093F2299093F32901E0BEC000E0BCC058
:1040400000E0BAC08091832B9091842B892B09F0DA
:1040500047C00E943632882309F444C020917F2B48
:104060003091802B3327E0912B20F0912C208189F7
:1040700090E082179307C0F119DE80917F2B909119
:10408000802B8093F129882389F199278150904CC6
:10409000880F991F880F991FE0912D20F0912E20F5
:1040A000E80FF91FE093EF29F093F0290190F081D8
:1040B000E02D84818823E1F0C0E060E08C2FC0DD3A
:1040C000082F882309F478C0CF5FE091EF29F091A1
:1040D000F0290190F081E02D8481C81770F36CC045
:1040E00000E06AC000E068C000E066C001E064C0B3
:1040F00001E062C0213009F580917E2B8B30E9F41C
:104100008091832B9091842B892B99F48091F129B4
:10411000882389F0C091812BD0917F2B8C2F4EDD8D
:10412000082F882309F448C06D2F8C2F89DD082FB4
:1041300043C000E041C000E03FC0223009F03EC073
:1041400080917E2B813019F08330B9F034C080919A
:10415000832B9091842B892B61F480917F2B9091FC
:10416000802B892B41F48091812B0E94C632082F2D
:1041700023C000E021C000E01FC08091832B9091FC
:10418000842B892B81F480917F2B9091802B892B1C
:1041900061F4C1E8DBE288810E94783388810E9463
:1041A000CE33082F09C000E007C000E005C000E0E2
:1041B00003C000E001C000E0011191C080917D2B9F
:1041C0008F718130C1F58091F1298823A1F1C091CF
:1041D000812BD091822B0091EF291091F029D801E9
:1041E000ED91FC918481C81730F560E08C2FACDC38
:1041F000882309F1CE019927880F991FD8011296BB
:10420000ED91FC911397E80FF91F00811181D801FE
:104210001696ED91FC9117971995682F8C2F94DCC9
:10422000882349F0D8011496ED91FC9115971995C2
:10423000082F811154C080917D2B8F718230D9F568
:104240008091F129882389F1E091EF29F091F029FB
:10425000A081B18114968C91882349F110E0212F1F
:1042600030E0220F331F0280F381E02DE20FF31FB5
:10427000C081D181EE81FF811995682F812F64DC87
:10428000082F882361F1EC81FD811995082F811198
:1042900026C01F5FE091EF29F091F029A081B18144
:1042A00014968C911817D8F21AC000E018C000E0DC
:1042B00016C000E014C000E012C0822F807609F022
:1042C0007DCF84CE322F307609F078CF64CD2FE0C9
:1042D00080EB90E2DECD2CE08DE89BE2DACD802F02
:1042E000DF91CF911F910F91FF90EF90089543E0E0
:1042F00050E061E080EE97E050D843E050E062E0AB
:1043000080EE97E04AD843E050E060E180E696E036
:1043100044D841E050E460E280E696E03ED840E0D8
:104320005BE160E280E896E038D840E05BE162E083
:1043300080EA96E032D840E05BE164E080EA96E013
:104340002CD843E050E062E080E696E026D843E0D7
:1043500050E068E080E696E020D843E050E068E076
:1043600080EA96E01AD843E050E061E080E696E00B
:1043700014D843E050E068E080E096E00ED841E0D9
:1043800050E060E180E896E008D843E050E062E069
:1043900080E696E002D843E050E068E080E696E0F0
:1043A0000E94CD1940E050E064E080E696E00E9473
:1043B000CD1943E050E060E180EA96E00C94CD191D
:1043C00008954FB7F894282F392F211582E0380728
:1043D00029F46093792B70937A2B07C020343240F4
:1043E00021F46093772B7093782B4FBF089581153C
:1043F00022E0920769F48091F52991E0980F90935B
:10440000F529811114C062E081E00C9469100895CF
:104410008034924061F48091F42991E0980F909358
:10442000F429811104C062E082E00C9469100895BF
:10443000811522E0920761F48091F52981508093E3
:10444000F529811113C062E081E00C947510089584
:104450008034924059F48091F42981508093F4295A
:10446000811104C062E082E00C94751008951F93DE
:10447000CF93DF93EC011FB7F894B9DF8881816097
:1044800088831FBF8FB7F894E2E7FBE290819F5FBC
:1044900090838FBFDF91CF911F9108951F920F924C
:1044A0000FB60F9211240BB60F922F933F934F9399
:1044B0005F936F937F938F939F93AF93BF93EF938C
:1044C000FF93E0E0F2E044A155A1E091792BF09157
:1044D0007A2B61E080E092E01995FF91EF91BF9116
:1044E000AF919F918F917F916F915F914F913F918C
:1044F0002F910F900BBE0F900FBE0F901F9018952D
:104500001F920F920FB60F9211240BB60F922F939A
:104510003F934F935F936F937F938F939F93AF934B
:10452000BF93EF93FF93E8E2F2E044815581E0917D
:10453000792BF0917A2B62E080E092E01995FF915F
:10454000EF91BF91AF919F918F917F916F915F910B
:104550004F913F912F910F900BBE0F900FBE0F9078
:104560001F9018951F920F920FB60F9211240BB641
:104570000F922F933F934F935F936F937F938F93FC
:104580009F93AF93BF93EF93FF93E0E3F2E04481F7
:104590005581E091792BF0917A2B64E080E092E0F4
:1045A0001995FF91EF91BF91AF919F918F917F915D
:1045B0006F915F914F913F912F910F900BBE0F9094
:1045C0000FBE0F901F9018951F920F920FB60F926B
:1045D00011240BB60F922F933F934F935F936F93DA
:1045E0007F938F939F93AF93BF93EF93FF93E8E3F2
:1045F000F2E044815581E091792BF0917A2B68E0CB
:1046000080E092E01995FF91EF91BF91AF919F915A
:104610008F917F916F915F914F913F912F910F906B
:104620000BBE0F900FBE0F901F9018951F920F9208
:104630000FB60F9211240BB60F922F933F934F9307
:104640005F936F937F938F939F93AF93BF93EF93FA
:10465000FF93E0E4F2E044A155A1E091772BF091C3
:10466000782B61E080E492E01995FF91EF91BF9182
:10467000AF919F918F917F916F915F914F913F91FA
:104680002F910F900BBE0F900FBE0F901F9018959B
:104690001F920F920FB60F9211240BB60F922F9309
:1046A0003F934F935F936F937F938F939F93AF93BA
:1046B000BF93EF93FF93E8E6F2E044815581E091E8
:1046C000772BF091782B62E080E492E01995FF91CE
:1046D000EF91BF91AF919F918F917F916F915F917A
:1046E0004F913F912F910F900BBE0F900FBE0F90E7
:1046F0001F9018951F920F920FB60F9211240BB6B0
:104700000F922F933F934F935F936F937F938F936A
:104710009F93AF93BF93EF93FF93E0E7F2E0448161
:104720005581E091772BF091782B64E080E492E062
:104730001995FF91EF91BF91AF919F918F917F91CB
:104740006F915F914F913F912F910F900BBE0F9002
:104750000FBE0F901F9018951F920F920FB60F92D9
:1047600011240BB60F922F933F934F935F936F9348
:104770007F938F939F93AF93BF93EF93FF93E8E75C
:10478000F2E044815581E091772BF091782B68E03D
:1047900080E492E01995FF91EF91BF91AF919F91C5
:1047A0008F917F916F915F914F913F912F910F90DA
:1047B0000BBE0F900FBE0F901F901895DF92EF92D7
:1047C000FF920F931F93CF93DF93EC018B01C115E1
:1047D00022E0D20771F461E270E082E036D1E82E87
:1047E000F12C60E270E082E030D1FE2CEE24E82A69
:1047F00010C08034924059F565E270E082E025D126
:10480000E82EF12C64E270E082E01FD1FE2CEE2451
:10481000E82ADFB6F894CE01EADD288182E08883B9
:10482000EC86FD86F80185819681888F998F82813B
:104830008A8384818C8383818B8381818983822F86
:1048400081709081892B8883CE01F2DDDFBEDF91FC
:10485000CF911F910F91FF90EF90DF900895FF92FD
:104860000F931F93CF93DF93EC018B01FFB6F89466
:10487000BEDD8881807CF8018083888D998D858359
:1048800096838A8182838C8184838B8183838981CF
:104890008183CE01CDDDFFBEDF91CF911F910F91BE
:1048A000FF900895CF92DF92EF92FF920F931F93A4
:1048B000CF93DF937C01D62E8A01862F837029F453
:1048C000962F9695969582E002C0962F80E090FFF5
:1048D0008F5FE701A09698E0899FC00DD11D11243C
:1048E000CFB6F894C70183DDF80180818883828187
:1048F0008A8381818983D0FE02C083818E83C70130
:1049000097DDCFBEDF91CF911F910F91FF90EF9078
:10491000DF90CF900895CF92DF92EF92FF920F93A6
:104920001F93CF93DF937C01D62EEA01862F8370ED
:1049300029F4962F9695969582E002C0962F80E0F6
:1049400090FF8F5F8701005E1F4F98E0899F000DE9
:10495000111D1124CFB6F894C70149DDF8018081FB
:10496000888382818A8381818983D0FE02C0868187
:104970008B83C7015DDDCFBEDF91CF911F910F917A
:10498000FF90EF90DF90CF9008951BBEFC0128EDC3
:1049900024BF60830895E0ECF1E027852223ECF347
:1049A000ECECF1E0208128602083DC01B05F8C9189
:1049B0009081977F90830895E0ECF1E087858823CC
:1049C000ECF3E0ECF1E0878581FF06C086E38287A7
:1049D00061E08BEC91E0D9CF0895E0ECF1E09785B0
:1049E0009923ECF3ECECF1E0908198609083A82F90
:1049F000B0E0B05F6C938081877F80830895FF92E1
:104A00000F931F93CF93DF93182FF92EC62FE0EC4F
:104A1000F1E00285D1DFE0ECF1E027852223ECF321
:104A20006C2F812FDADFC0ECD1E01A82F982188373
:104A300085E38A8761E08BEC91E0A7DF0A87DF914D
:104A4000CF911F910F91FF9008954091CA01E62FD9
:104A5000F72F8093CA0184914093CA010895109260
:104A60002004E0E2F4E0218120FDFDCFE0E2F4E06B
:104A7000648375838683978381E08083089580E1D2
:104A8000E0E2F4E08183818184FDFDCFE0E2F4E0A7
:104A900064817581868197810895CF93DF93D82FA4
:104AA000E0EFF0E0C18164E080E00E946910CC2377
:104AB0007CF0C0FF04C0DD2369F082E010C0C1FDBE
:104AC0000BC082E08093F000C2FF08C085E007C001
:104AD00081E005C083E003C084E001C080E0DF9195
:104AE000CF910895CF93DF9364E080E00E94691036
:104AF000C0EFD0E088818260888361E080EF90E041
:104B000044DF88818460888380E090E00196803271
:104B100023E09207D9F7E0EFF0E08081886080839E
:104B2000818183FFFDCF10922004E0E2F4E08181D7
:104B300080FDFDCFE0E2F4E08FEF9FEFDC018087A6
:104B40009187A287B387148215821682178281818A
:104B500080FDFDCFE0E2F4E0128281E0808381817C
:104B600080FDFDCFDF91CF9108951F920F920FB678
:104B70000F9211240BB60F922F933F934F935F9395
:104B80006F937F938F939F93AF93BF93CF93DF9355
:104B9000EF93FF93E0E2F4E01282C0917B2BD0917F
:104BA0007C2B209719F06BDFFE011995FF91EF9197
:104BB000DF91CF91BF91AF919F918F917F916F9135
:104BC0005F914F913F912F910F900BBE0F900FBEB1
:104BD0000F901F9018951F920F920FB60F921124ED
:104BE0000BB60F922F933F934F935F936F937F93E7
:104BF0008F939F93AF93BF93EF93FF93E0913C2AE2
:104C0000F0913D2A309709F01995FF91EF91BF91EE
:104C1000AF919F918F917F916F915F914F913F9154
:104C20002F910F900BBE0F900FBE0F901F901895F5
:104C30001F920F920FB60F9211240BB60F922F9363
:104C40003F934F935F936F937F938F939F93AF9314
:104C5000BF93EF93FF93E0913A2AF0913B2A30976C
:104C600009F01995FF91EF91BF91AF919F918F91AD
:104C70007F916F915F914F913F912F910F900BBE5C
:104C80000F900FBE0F901F9018951F920F920FB6A6
:104C90000F9211240BB60F922F933F934F935F9374
:104CA0006F937F938F939F93AF93BF93EF93FF93F4
:104CB000E091382AF091392A309709F01995FF913F
:104CC000EF91BF91AF919F918F917F916F915F9184
:104CD0004F913F912F910F900BBE0F900FBE0F90F1
:104CE0001F9018951F920F920FB60F9211240BB6BA
:104CF0000F922F933F934F935F936F937F938F9375
:104D00009F93AF93BF93EF93FF93E091362AF09177
:104D1000372A309709F01995FF91EF91BF91AF9124
:104D20009F918F917F916F915F914F913F912F91C3
:104D30000F900BBE0F900FBE0F901F9018951F92F3
:104D40000F920FB60F9211240BB60F922F933F9331
:104D50004F935F936F937F938F939F93AF93BF9383
:104D6000EF93FF93E091342AF091352A309709F0C0
:104D70001995FF91EF91BF91AF919F918F917F9185
:104D80006F915F914F913F912F910F900BBE0F90BC
:104D90000FBE0F901F9018951F920F920FB60F9293
:104DA00011240BB60F922F933F934F935F936F9302
:104DB0007F938F939F93AF93BF93EF93FF93E09174
:104DC000322AF091332A309709F01995FF91EF912B
:104DD000BF91AF919F918F917F916F915F914F9113
:104DE0003F912F910F900BBE0F900FBE0F901F9011
:104DF00018951F920F920FB60F9211240BB60F92B7
:104E00002F933F934F935F936F937F938F939F93D2
:104E1000AF93BF93EF93FF93E091302AF091312A43
:104E2000309709F01995FF91EF91BF91AF919F9144
:104E30008F917F916F915F914F913F912F910F9043
:104E40000BBE0F900FBE0F901F9018951F920F92E0
:104E50000FB60F9211240BB60F922F933F934F93DF
:104E60005F936F937F938F939F93AF93BF93EF93D2
:104E7000FF93E0912E2AF0912F2A309709F019958F
:104E8000FF91EF91BF91AF919F918F917F916F9122
:104E90005F914F913F912F910F900BBE0F900FBEDE
:104EA0000F901F9018951F920F920FB60F9211241A
:104EB0000BB60F922F933F934F935F936F937F9314
:104EC0008F939F93AF93BF93EF93FF93E0912C2A1F
:104ED000F0912D2A309709F01995FF91EF91BF912C
:104EE000AF919F918F917F916F915F914F913F9182
:104EF0002F910F900BBE0F900FBE0F901F90189523
:104F00001F920F920FB60F9211240BB60F922F9390
:104F10003F934F935F936F937F938F939F93AF9341
:104F2000BF93EF93FF93E0912A2AF0912B2A3097B9
:104F300009F01995FF91EF91BF91AF919F918F91DA
:104F40007F916F915F914F913F912F910F900BBE89
:104F50000F900FBE0F901F9018951F920F920FB6D3
:104F60000F9211240BB60F922F933F934F935F93A1
:104F70006F937F938F939F93AF93BF93EF93FF9321
:104F8000E091282AF091292A309709F01995FF918C
:104F9000EF91BF91AF919F918F917F916F915F91B1
:104FA0004F913F912F910F900BBE0F900FBE0F901E
:104FB0001F9018951F920F920FB60F9211240BB6E7
:104FC0000F922F933F934F935F936F937F938F93A2
:104FD0009F93AF93BF93EF93FF93E091262AF091B5
:104FE000272A309709F01995FF91EF91BF91AF9162
:104FF0009F918F917F916F915F914F913F912F91F1
:105000000F900BBE0F900FBE0F901F9018951F9220
:105010000F920FB60F9211240BB60F922F933F935E
:105020004F935F936F937F938F939F93AF93BF93B0
:10503000EF93FF93E091242AF091252A309709F00D
:105040001995FF91EF91BF91AF919F918F917F91B2
:105050006F915F914F913F912F910F900BBE0F90E9
:105060000FBE0F901F9018951F920F920FB60F92C0
:1050700011240BB60F922F933F934F935F936F932F
:105080007F938F939F93AF93BF93EF93FF93E091A1
:10509000222AF091232A309709F01995FF91EF9178
:1050A000BF91AF919F918F917F916F915F914F9140
:1050B0003F912F910F900BBE0F900FBE0F901F903E
:1050C00018951F920F920FB60F9211240BB60F92E4
:1050D0002F933F934F935F936F937F938F939F9300
:1050E000AF93BF93EF93FF93E091202AF091212A91
:1050F000309709F01995FF91EF91BF91AF919F9172
:105100008F917F916F915F914F913F912F910F9070
:105110000BBE0F900FBE0F901F9018951F920F920D
:105120000FB60F9211240BB60F922F933F934F930C
:105130005F936F937F938F939F93AF93BF93EF93FF
:10514000FF93E0911E2AF0911F2A309709F01995DC
:10515000FF91EF91BF91AF919F918F917F916F914F
:105160005F914F913F912F910F900BBE0F900FBE0B
:105170000F901F9018951F920F920FB60F92112447
:105180000BB60F922F933F934F935F936F937F9341
:105190008F939F93AF93BF93EF93FF93E0911C2A5C
:1051A000F0911D2A309709F01995FF91EF91BF9169
:1051B000AF919F918F917F916F915F914F913F91AF
:1051C0002F910F900BBE0F900FBE0F901F90189550
:1051D0001F920F920FB60F9211240BB60F922F93BE
:1051E0003F934F935F936F937F938F939F93AF936F
:1051F000BF93EF93FF93E0911A2AF0911B2A309707
:1052000009F01995FF91EF91BF91AF919F918F9107
:105210007F916F915F914F913F912F910F900BBEB6
:105220000F900FBE0F901F9018951F920F920FB600
:105230000F9211240BB60F922F933F934F935F93CE
:105240006F937F938F939F93AF93BF93EF93FF934E
:10525000E091182AF091192A309709F01995FF91D9
:10526000EF91BF91AF919F918F917F916F915F91DE
:105270004F913F912F910F900BBE0F900FBE0F904B
:105280001F9018951F920F920FB60F9211240BB614
:105290000F922F933F934F935F936F937F938F93CF
:1052A0009F93AF93BF93EF93FF93E091162AF091F2
:1052B000172A309709F01995FF91EF91BF91AF919F
:1052C0009F918F917F916F915F914F913F912F911E
:1052D0000F900BBE0F900FBE0F901F9018951F924E
:1052E0000F920FB60F9211240BB60F922F933F938C
:1052F0004F935F936F937F938F939F93AF93BF93DE
:10530000EF93FF93E091142AF091152A309709F05A
:105310001995FF91EF91BF91AF919F918F917F91DF
:105320006F915F914F913F912F910F900BBE0F9016
:105330000FBE0F901F9018951F920F920FB60F92ED
:1053400011240BB60F922F933F934F935F936F935C
:105350007F938F939F93AF93BF93EF93FF93E091CE
:10536000122AF091132A309709F01995FF91EF91C5
:10537000BF91AF919F918F917F916F915F914F916D
:105380003F912F910F900BBE0F900FBE0F901F906B
:1053900018951F920F920FB60F9211240BB60F9211
:1053A0002F933F934F935F936F937F938F939F932D
:1053B000AF93BF93EF93FF93E091102AF091112ADE
:1053C000309709F01995FF91EF91BF91AF919F919F
:1053D0008F917F916F915F914F913F912F910F909E
:1053E0000BBE0F900FBE0F901F9018951F920F923B
:1053F0000FB60F9211240BB60F922F933F934F933A
:105400005F936F937F938F939F93AF93BF93EF932C
:10541000FF93E0910E2AF0910F2A309709F0199529
:10542000FF91EF91BF91AF919F918F917F916F917C
:105430005F914F913F912F910F900BBE0F900FBE38
:105440000F901F9018951F920F920FB60F92112474
:105450000BB60F922F933F934F935F936F937F936E
:105460008F939F93AF93BF93EF93FF93E0910C2A99
:10547000F0910D2A309709F01995FF91EF91BF91A6
:10548000AF919F918F917F916F915F914F913F91DC
:105490002F910F900BBE0F900FBE0F901F9018957D
:1054A0001F920F920FB60F9211240BB60F922F93EB
:1054B0003F934F935F936F937F938F939F93AF939C
:1054C000BF93EF93FF93E0910A2AF0910B2A309754
:1054D00009F01995FF91EF91BF91AF919F918F9135
:1054E0007F916F915F914F913F912F910F900BBEE4
:1054F0000F900FBE0F901F9018951F920F920FB62E
:105500000F9211240BB60F922F933F934F935F93FB
:105510006F937F938F939F93AF93BF93EF93FF937B
:10552000E091082AF091092A309709F01995FF9126
:10553000EF91BF91AF919F918F917F916F915F910B
:105540004F913F912F910F900BBE0F900FBE0F9078
:105550001F9018951F920F920FB60F9211240BB641
:105560000F922F933F934F935F936F937F938F93FC
:105570009F93AF93BF93EF93FF93E091062AF0912F
:10558000072A309709F01995FF91EF91BF91AF91DC
:105590009F918F917F916F915F914F913F912F914B
:1055A0000F900BBE0F900FBE0F901F9018951F927B
:1055B0000F920FB60F9211240BB60F922F933F93B9
:1055C0004F935F936F937F938F939F93AF93BF930B
:1055D000EF93FF93E091042AF091052A309709F0A8
:1055E0001995FF91EF91BF91AF919F918F917F910D
:1055F0006F915F914F913F912F910F900BBE0F9044
:105600000FBE0F901F9018951F920F920FB60F921A
:1056100011240BB60F922F933F934F935F936F9389
:105620007F938F939F93AF93BF93EF93FF93E091FB
:10563000022AF091032A309709F01995FF91EF9112
:10564000BF91AF919F918F917F916F915F914F919A
:105650003F912F910F900BBE0F900FBE0F901F9098
:1056600018951F920F920FB60F9211240BB60F923E
:105670002F933F934F935F936F937F938F939F935A
:10568000AF93BF93EF93FF93E091002AF091012A2B
:10569000309709F01995FF91EF91BF91AF919F91CC
:1056A0008F917F916F915F914F913F912F910F90CB
:1056B0000BBE0F900FBE0F901F9018951F920F9268
:1056C0000FB60F9211240BB60F922F933F934F9367
:1056D0005F936F937F938F939F93AF93BF93EF935A
:1056E000FF93E091FE29F091FF29309709F0199579
:1056F000FF91EF91BF91AF919F918F917F916F91AA
:105700005F914F913F912F910F900BBE0F900FBE65
:105710000F901F9018951F920F920FB60F921124A1
:105720000BB60F922F933F934F935F936F937F939B
:105730008F939F93AF93BF93EF93FF93E091FC29D7
:10574000F091FD29309709F01995FF91EF91BF91E4
:10575000AF919F918F917F916F915F914F913F9109
:105760002F910F900BBE0F900FBE0F901F901895AA
:105770001F920F920FB60F9211240BB60F922F9318
:105780003F934F935F936F937F938F939F93AF93C9
:10579000BF93EF93FF93E091FA29F091FB293097A3
:1057A00009F01995FF91EF91BF91AF919F918F9162
:1057B0007F916F915F914F913F912F910F900BBE11
:1057C0000F900FBE0F901F9018951F920F920FB65B
:1057D0000F9211240BB60F922F933F934F935F9329
:1057E0006F937F938F939F93AF93BF93EF93FF93A9
:1057F000E091F829F091F929309709F01995FF9176
:10580000EF91BF91AF919F918F917F916F915F9138
:105810004F913F912F910F900BBE0F900FBE0F90A5
:105820001F9018951F920F920FB60F9211240BB66E
:105830000F922F933F934F935F936F937F938F9329
:105840009F93AF93BF93EF93FF93E091F629F0916D
:10585000F729309709F01995FF91EF91BF91AF911A
:105860009F918F917F916F915F914F913F912F9178
:105870000F900BBE0F900FBE0F901F901895CF93F7
:10588000CFB7F894282F392F211588E0380749F42D
:1058900061E083E00E94691064E083E00E94691087
:1058A0004FC0203488E0380749F462E083E00E946A
:1058B000691064E083E00E94691042C0211589E00C
:1058C000380749F461E084E00E94691064E084E0F4
:1058D0000E94691035C0203489E0380749F462E03D
:1058E00084E00E94691064E084E00E94691028C08E
:1058F00021158AE0380749F461E085E00E946910CB
:1059000064E085E00E9469101BC020348AE03807FB
:1059100049F462E085E00E94691064E085E00E943D
:1059200069100EC021153B4049F461E086E00E94F9
:10593000691064E086E00E94691002C0CFBF09C010
:105940008FB7F894E2E7FBE290819F5F90838FBF6F
:10595000CFBFCF910895811528E0920729F4609375
:10596000382A7093392A0895803428E0920729F460
:1059700060932C2A70932D2A0895811529E09207AF
:1059800029F46093242A7093252A0895803429E00D
:10599000920729F46093182A7093192A08958115A3
:1059A0002AE0920729F46093102A7093112A08952F
:1059B00080342AE0920729F46093042A7093052A20
:1059C000089581159B4021F46093FC297093FD2973
:1059D0000895CF92DF92EF92FF920F931F93CF9390
:1059E000DF93EC0168017901F694E794D794C794AA
:1059F0004C155D056E057F0578F46A017B01CC0CC2
:105A0000DD1CEE1CFF1CC901B801A70196010E9414
:105A1000FF3F2150310902C020E030E0832F8F701A
:105A20008F832E83DF91CF911F910F91FF90EF9085
:105A3000DF90CF900895FF920F931F93CF93DF9342
:105A4000EC018B01009709F4B8C1803C910529F461
:105A500060E180E00E946910B0C1803821E09207C7
:105A600029F462E080E00E946910A7C1C11581E0BD
:105A7000D80729F461E080E00E9469109EC1C03817
:105A8000E3E0DE0729F461E081E00E94691095C13E
:105A9000C039F3E0DF0729F461E082E00E94691079
:105AA0008CC1C11522E0D20729F462E081E00E9496
:105AB000691083C1C03482E0D80729F462E082E033
:105AC0000E9469107AC1C032E3E0DE0729F464E085
:105AD00082E00E94691071C1C115F8E0DF0729F466
