:020000023000CC
:1000000000C00091780005FD42C0F092800608E132
:10001000009395060FEF0A950023E9F700918806F3
:1000200005FFECC0E0E0F0E0079116910F3F19F4F6
:100030001F3F09F4E3C02BC03091CF0137FDFCCF47
:100040003BB72BBFF8012091CA0113E21093CA01FC
:100050000A01E8952093CA013BBF08953BB72BBF27
:10006000F8012091CA014093CA013DE93093340060
:10007000E8952093CA013BBF089501E70DBF00E258
:100080000EBFC2E9DAE20F94B6800F94828AF09232
:10009000950600910020109101200A3A154511F0B3
:1000A0000C940000F0920020F092012000E20093F6
:1000B0007800F6CFFF84EE84DD84CC84BB84AA84F0
:1000C000998488847F806E805D804C80BB81AA810A
:1000D00099818881F0E0EC0FFD1FEF010895FA92FD
:1000E000EA92DA92CA92BA92AA929A928A927A92F0
:1000F0006A925A924A92BA93AA939A938A930895CB
:10010000AF93BF93D80101900D9241505040D9F761
:10011000BF91AF9108954091CA01E22FF32F009350
:10012000CA0104914093CA01089540E04BBFF80111
:1001300058ED54BF20830895169507954A95E2F728
:100140000895000F111F4A95E2F7089520E008D0A6
:10015000E9F708953BBF27913BB702D0D9F708953F
:100160002D9301501040202F212B08950EE1402E99
:1001700005E1502E03E0602EF201362D6BBE079193
:100180001691F201EE5FFF4F3F4F3BBFA791B69133
:10019000F201362DEC5FFF4F3F4F3BBF4791579128
:1001A0006691242F252B262B21F0FA01362FD2DF42
:1001B00001C0CCDF07E0400E00E0501E601E0CE2E4
:1001C00015E123E0401651066206B0F20895BD0124
:1001D000D801F90104C021912D9341505040242FA2
:0801E000252BC9F7DB0108958E
:1001F4000D947F810D94B4813ECF0FBF0895202FBD
:1002040030E002E00D948B800AE107D00093FA04F9
:100214000BE103D00093FB040895F1DF0F3F09F4D1
:100224000FE108950F947C8000E00093600000E3E8
:100234000F940C8A2FD10064008301E000936000C6
:10024400AFB7F89451D028E0029FF001EC54F64D7A
:10025400158303950230C0F3D7DF0091C0040093E7
:10026400C00418D10068008300810061008384EB1E
:1002740099E20496E6EC80839183E0EC45D10FEF9C
:100284000583E8EC0081016000830A2FB6DFE3E018
:100294000D9467808991089500E008950FB7F8944C
:1002A40010E41093CA0410E21093CA04E1ECF4E0E1
:1002B400108111601083E9EC108112601083E8EC66
:1002C400108110641083E9EC108111601083E8EC54
:1002D40010811068108391CF008308950093C304A4
:1002E40008950091C304089500E010E0089509D131
:1002F400068F178F20A331A3089566D00091CB04F5
:1003040007FF05C000E815D20F94288429C0FAD14C
:10031400002331F5EBECBFD004FF18C000E109D293
:100324000F94148400E00093C30420E430E010E050
:1003340062D020E430E010E000E85DD002EE19E283
:100344000093BC291093BD2928D10AC0008106FF5F
:1003540002C000E404C0008105FF02C000E2E9D14C
:100364001ED0189531D09FD101FD02C085D1B1F4C2
:1003740002E00093CC040091C5043BD0F801008155
:1003840005FF06C036D020E2F801269307D106C047
:1003940000E830D020E2F8012693BFD0E1CFACBF13
:1003A4009BBF8FBF09911991299139914991599115
:1003B400699179910990199029903990E991F9916D
:1003C40089919991A9910895AA939A938A93FA93FA
:1003D400EA933A922A921A920A927A936A935A93D5
:1003E4004A933A932A931A930A938FB79BB7ACB75D
:1003F400089500E01AC08A932051304041F0205102
:10040400304039F02052304031F080E005C081E0C6
:1004140003C082E001C083E0EDDF20E0F801218326
:1004240026E020838064818335CF68EB79E2202F36
:100434002F70220F000F58DF001F020F43E00F94AC
:10044400A380060F171F08959D01E8EC24D00F7DAB
:10045400008300810F7D00833DD102E00593A2EC6F
:10046400B9E242DF0D930C93539600E2069300E445
:1004740006933AD1069300E406931D931D931C93AF
:1004840011961D931D931C9317971D931C9310A7EE
:10049400D9010895E0ECF4E00081089501D100232E
:1004A40031F0033011F0043009F421D176D029D091
:1004B40006811781083050E0104009F548E022EE2B
:1004C40039E20AEC19E20F94E780E8ECF4E01CD07E
:1004D4001BD00F94DD85002309F4E8C012D00689EF
:1004E40007FF04C014D002E004A717C0048D158DC3
:1004F400012B09F405C00BD001E004A7F1D0089545
:10050400E1C0E4EBF9E2089500810062E5CE00E089
:1005140000A701A702A703A70895BED0033011F4D2
:100524003BD037C083D080A191A1801B910B282F91
:10053400292BA9F47FD0048D158D0217130719F008
:1005440005A5002311F0C9D024C080D081F07BD050
:1005540071F000E0FD0102A703A780A191A18034FE
:1005640000E0900720F080E490E005A703C001E0DC
:100574000093E129FD0186879787068D178D22A5B3
:1005840033A5020F131F008B118B89014AD0A2D00F
:10059400A8D0E4E00D946680AAD056CF7DD0043074
:1005A40011F4FADF3DC0FD018681978162A573A530
:1005B40020A131A18B01080F191F2017310718F44E
:1005C400C901861B970BAC0122EE39E2068D178D0B
:1005D400060F171F0F94E78029D023D08034904052
:1005E40031F42CD0448D558D2417350740F000A3E9
:1005F40011A32CD011F027D059F064D011C020A140
:1006040031A12017310759F421D011F01CD011F475
:100614004DD006C00BD00ED000E002A703A760D0D7
:10062400B8CF080F191F02A713A70895FD0102A54B
:1006340013A5089503D020A731A7089520A531A5B7
:10064400200F311F08955BD00023089545A156A1C2
:1006540067A100E0403050076007089524D001FDF1
:100664000AC00AD009F008951BD0013009F448CF1C
:10067400043009F41ED008955FD0E6CF14D001FDF4
:100684000AC0FADF09F008950BD0023009F425C03E
:10069400033009F40ED008950F947B80A4EBB9E2E3
:1006A4000091E02908950091CC04089505E0009399
:1006B400E029E1ECF9E204E00593E9EBF9E204E076
:1006C400059308951EDF03E004A700E0068707876B
:1006D40001D007C0E0ECF9E2089504E00093E029BA
:1006E40003D002E006930895E8EBF9E2089509DFE8
:1006F40042A153A164A1ADDF09F001D00895FA012C
:100704006CBF1994EBECC7DE02FF08C0F093CA0477
:100714000091C02906FF0BC0A1DF09C0008101FFC1
:1007240007C002E006D00091B82906FDA7DF16C075
:10073400B3CD0093CA040895B6DF00FFADCD01E048
:100744000093CC04D1DF00E80693C4DF00E80693ED
:1007540001E0EFDFC9DF00E10693A0DE01E00895C8
:10076400BD014DD12681222371F1A281B3812D9146
:100774003C91D90114964C91041728F524833583B0
:10078400D90112964D915C91240F351F06C04C91EE
:1007940050E0A40FB51FA483B583A481B581A2172B
:1007A400B30788F411964C911197443081F712964F
:1007B4004C911297041759F713964C9113971417E9
:1007C40031F701E001C000E0DB0108953DD0802F46
:1007D40010E0E7D111F400E006C015D003811481C4
:1007E4002581D4D101E04DC02FD0802FDAD149F03A
:1007F4000AD0008111812281C9D1002311F001E0C6
:1008040001C000E03EC0AEE4B1E2ED91FC91A281F2
:10081400B38102E0809FA00DB11DED91FC9108957C
:100824000D94148111D00DD139F080E003C0082F4C
:10083400CDDF839509D1D8F300E00093522101E084
:1008440010E00D931C931DC00D947B80A2D1C9F0C0
:1008540080E00EC0FD0118D044855585668500E012
:1008640040305007600719F0FA016CBF1995839561
:10087400C6D0A281B381ED91FC91119704818017B8
:1008840048F3E4E00D9466800281138176D10081FF
:10089400F181E02F08950091CC290F770D94708198
:1008A4000091CC29002329F00A9541F00A9511F111
:1008B40025C024E030E006E011E21AC025E00EEE87
:1008C40010E240E050E032E0F801E40FF51F6081EF
:1008D400439FF001E653FF4D6283538343954217D0
:1008E40098F3220F2E5F2093CA2030E00AEC10E226
:1008F400A6D005C021E104EF10E2E3CF7BC101E003
:10090400089574D0FD014281238104E411E22A9503
:1009140029F02A95A1F02A9551F12CC02DD02081DF
:1009240030E0F801008111818AD065D022853385B9
:100934000217130710F40287138701E054C01CD078
:1009440021894217B8F4F801F8D024E0429F000D41
:10095400111DF80100811181F801228133816FD0CA
:1009640022E0FD010085F185E02F2183DECF98DFB1
:100974000023D9F600E0E2CFF8012081F181E22FD3
:10098400089534D038D0012B59F50F947381002386
:1009940039F1E4E4F1E27BDF2189FD0102812017D2
:1009A400F8F040DFFD010281009352212091522191
:1009B4002223C1F0E4E4F1E2C0D034E0239F000D2F
:1009C400111D045010401BD002831383A0E001C00A
:1009D400A395E9D0A01730F410E04ED00023C1F75E
:1009E40000E001C001E0A991B9910895BA93AA93D6
:1009F400AAECB9E20895FD01068117810895ECE49B
:100A0400F1E2089521DF92D0068117810130104070
:100A140039F417D029F0848117D010F4C0D011F420
:100A240000E00CC0FD01A6D02FDFADD00093532110
:100A340021E030E017968D0102D001E022CF0D9421
:100A44007981ACE4B1E2A7C0FD01AFD0801708956D
:100A5400AA938A936BD06DD041F49DD031F0A481D8
:100A640082810A2FB3DE002311F400E002C0182FA4
:100A740003D08991A99108950A2FB6CE57D0008149
:100A840007FF2CC026813781022F032BA9F1008197
:100A94000F71F1F41181112329F0165069F01250ED
:100AA40061F016C0223000E0304009F0089522E0E1
:100AB40030E00CE411E20AC024CF213000E03040E1
:100AC40009F0089521E030E002E511E2B8DF17CF24
:100AD400013091F401810A3079F494CF0F7101F55A
:100AE40011811A9589F0125039F0125019F01450EE
:100AF400B1F016C01ED009F07DC00DE414E821E069
:100B0400048715872687E3CF14D0B1F716D00130B8
:100B1400104091F774DF00810D7F0083D8CF31CF6F
:100B2400013051F701810B3039F792CFEAECF9E249
:100B3400089506811781012B089502811381089578
:100B440028D091F08091CE292ED0801768F427D038
:100B540059F055DF0FD0F1DF10D0A081B181FD0134
:100B640012D0102F1DD011F400E003C044DF208503
:100B74000DD087CE0281F3818CCE22E0829F000DBE
:100B8400111DF8010895018512852385F8012CBFF4
:100B940019940F947B80009152210023089510E052
:100BA400082FDEDDFACFECE4F1E2E4DF0081F1812D
:100BB400E02F04810895BADF00E0028703870487E9
:100BC400058706870787008B018B008107FF02C01A
:100BD400B0DF81F00091CA29007619F44FDF0023B9
:100BE40041F40091CA290F71013021F4A9DF0023D7
:100BF40009F085CE00E0089500E000936F2152D003
:100C04000F944C8A0F945B8AD2C00895BA93AA9326
:100C1400AAECB9E20091CA2900760032F9F51091E4
:100C2400CB290C9107FF17C0125041F01A9599F582
:100C340026E030E00EE511E25ED12BC0F8D0408D05
:100C4400518D628D00E040305007600721F1FA01B8
:100C54006CBF199524C01A9521F01350E1F422D0E9
:100C640018C000916F21002341F000E00F94818AA5
:100C740002E71AE821E01C9609C020E430E002E70C
:100C840011E239D103E616E821E01F960D931D9376
:100C94002C9301E004C0CBD00FE064D000E0A99114
:100CA400B991089502C000E0089500E0E1D0EAECB3
:100CB400F9E200E00787008B018B0487058706872C
:100CC4000895F0DF00E0B3D0008F018F028F01E0C0
:100CD4000F94818AE2E7F1E230812181203001E042
:100CE400300709F420C0203003E0300709F43DC088
:100CF4002130300709F453C0203004E0300739F4C0
:100D04000F94638A002300E009F4089550C023304F
:100D1400300721F401E000936F2108952330364019
:100D240009F452C0C0CF83D0048D158D012309F07E
:100D34009CC047815085618540305040604011F42B
:100D440010D002C027D009F4AECF20E038E0D1D0D3
:100D540004EF17E821E0EAECF9E20787108B218B16
:100D640028C003E002870AE0AACF14D019F023D0E8
:100D740011F4F7DF98CF048D158D012321F007E3DB
:100D840017E821E003C000E717E821E0008F118F86
:100D9400228F0FC004E711E271D000230895FADF17
:100DA40019F009D011F4DDDF7ECFA7D002C0009383
:100DB400702101E00895E4E5F1E244815581668102
:100DC40040305040604008952497E2E7F1E2038107
:100DD4001281112319F01A9559F026C00131F0F44B
:100DE40029D000E024D0008B018B028B038B1CC024
:100DF40040E0488349834A834B830B8304810A83FD
:100E040016D0088119812A813B81408151816281F8
:100E14007381041715072607370728F008D008E060
:100E2400A1DF00E002C0CFD001E024960895E4E5FC
:100E3400F1E20895033041F0023031F0043021F042
:100E4400053011F011E001C010E01093712112E09F
:100E5400019FF001E955FF4D6081F18104E511E244
:100E6400E62F4AE050E00D94808003E001D01BCFD0
:100E740000935E2102E00093622108950F947A802A
:100E8400A4E5B1E2FD0122893389F8015081418052
:100E9400FD01408A518BF801128103810D901D9050
:100EA4002D903C901397001511052205330540F051
:100EB40008E000935E210AE00093622100E00BC089
:100EC4000419150B220B330B66D0FD01048B158B13
:100ED400268B378B01E0E5E00D946580A8DF24883C
:100EE400358964D0222D6CD0A2DF2489358901D0C4
:100EF40060CF02EB11E20D9479810F947B80A4E51D
:100F0400B1E24ED0012B022B032B49F400E018EF81
:100F1400048B158B068B078B80E098E01BC040D0B8
:100F2400402F412B422B432B99F1003048E014070A
:100F340080E02040304010F4C80101C098E0A801CE
:100F440066897789481B590B60407040448B558BE8
:100F5400668B778B392F2AD0282F32D042EB51E27F
:100F640004C0FD0158D017D02ED08C010197012B5D
:100F7400B1F2FA010191AF010F3F99F305E000933B
:100F84005E210AEE17E821E0FD01008F118F228F08
:100F9400E4E00D9466800F5F1F4F2F4F3F4F08957D
:100FA400FD01048915892689378908954089518965
:100FB40062897389048115812681F8012CBF089503
:100FC40002EB11E21994008B118B228B338B089561
:100FD4002EDF008941894093B2210093B32122E09E
:100FE40030E085CF24DF17D064897589402F4F7393
:100FF400042E112442EB51E2400D511D0780108450
:101004002184F0012CBE199500E0EAECF9E207878F
:10101400008B018BCECE00891189228933890895F2
:101024000091CF0107FDFCCF089521E00BEC11E006
:101034000D9495808A938091CA012FD0AEC0999166
:10104400089559D0D8012901CA01A2D0ECECF1E0ED
:10105400008108600083AC01B05F9D0182010F94A0
:10106400E780ECECF1E00081077F0083E6E00D947B
:1010740064800F947B80C801A22FB091CA013DD037
:1010840087D00AD00DD0A093C40105E33ED0B0931D
:10109400CA01E4E00D94668003E30093CA01089555
:1010A4004DD09093C1018093C001089524D0C8010C
:1010B400D9012A010DC08D012AD045E08C010F947D
:1010C4009E8040D08096909600EE400E0FEF501E0A
:1010D400042D052979F0082F0F7129F400E2401638
:1010E40000E0500640F72D918C01C3DF01960FEF0D
:1010F400400EEDCFBBCF0D9479804AD00091CF0143
:1011040001FF02C006E301D00895C7DF8ECF0F941C
:101114007B80D8018091CA010BD00093C0011D913E
:101124001093C40103950032C0F38093CA01B1CF78
:101134002FD0B2DF03D00093C101089500E00093E3
:10114400C201089504D005E300C074DF2DC01AD095
:101154001FD000E2809FF2DF1092C1010092C00113
:1011640008959A930FD09091CA01C7DFE1DF0093ED
:10117400C0018093C40103950032C8F39093CA015F
:1011840089915DCF8A93802F089502D000E352CFD6
:1011940047CF01D0FACF0FEFE4CF21E00BEC11E001
:1011A4000F9495808093CA01899108950F94778054
:1011B4002A013B01C801A22FEBDF0CC0FC01ABBF2D
:1011C4000691F20100830ED08F5F9F4FAF4F0FEF58
:1011D400600E701E04D091F7E8E00D946280062D35
:1011E4000729089501E0400E00E0501E08950F9471
:1011F4006F8023974A015B01280139011170952DF5
:10120400D901001B80E0910BA040B04006C0C0DFB4
:1012140045E2860197010F942E800A2D0B2909F4CB
:1012240053C000E00A83B4DFCC24DD24D3940B89BB
:10123400002369F0FC01ABBF079116910883198361
:1012440028812F3F1F4F31F001E00A8303C00FEFC5
:10125400088309830A2D0B29C9F0481659066A0622
:101264007B0631F43AD0088333D00A2D0B2971F070
:101274008C019D010F5F1F4F2F4F3F4F40165106AA
:101284006206730619F429D0098322D04881598152
:101294008C019D010F941C808E5F9F4FAF4FBF4FF9
:1012A4000FEFC00ED01E0C2D0D2909F66C017D0127
:1012B4000EEFD00E0FEFE01EF01E0A81002309F09E
:1012C400A6CF66DF44E2A5CF2396E1E10D945A80D0
:1012D40001E0800E00E0901E08950FEFA00EB01EF6
:1012E40081DF601E701EF401008108950FBF089510
:1012F400083049F01FB7F894E0E5F0E02081202B96
:101304002083012F81D0089510915100102311F0F2
:1013140001E0089500E008958A938FB7F8940A9540
:1013240019F00A9559F023C0183019F424D001603B
:1013340002C023D00E7F0083E8E616C01ED0097FCA
:101344000083183019F417D002600CC0143011F463
:10135400008108C01F3F39F400E807870BEB008BBE
:10136400008104600083E0E6008101600083082FAF
:101374004BD08991089504E0BBDFE6E5F0E00081FD
:1013840008958A93802F082FBFDF0023E1F3F1CF64
:10139400202F30E002E00D948B802497E0E7F0E00A
:1013A40007E01FEF11930A95E9F724E001E445D023
:1013B4000CE1EEDF09830DE1EBDF088319810F3FB8
:1013C4001F4F21F400E413E2088319830881198173
:1013D4000A831B83009362000B810093630030D067
:1013E40021E000E42AD00FB7F894E0E5F0E01081A2
:1013F4001E7F108309D0249608954FB7F894109552
:1014040004D001230083042F71CFF0E0E02FE059D2
:10141400FF4FB5CF8A93063011F488E101C080E014
:1014240002E072DF002309F40BD08360282F04E468
:1014340004D010E400E0E1DF9CCF10E00D9495802F
:1014440002E056DF02E09DDF1FEF02E065CF0A01F4
:101454001B01B901A801800191010D94D888E1E034
:10146400EA930D94F9880A01A901980180010D9469
:1014740023889A01AB010D9458880A01A90122E737
:1014840030E2200D311D0D94E7800A01A90128E402
:1014940031E2F7CFE8E4F1E200919000008300919B
:1014A40091000183009192000283009193000383D1
:1014B4000895E0EDF1E0008101FB00E000F90F2761
:1014C40008950091CF0107FDFCCF40E200E010E059
:1014D40020E030E00F942E800F94CB8801E0089533
:1014E400F8940AEA15E5E0E0F0E200831183209124
:1014F4007900216009E710E00F949580FFCF0895EB
:1015040027E402EA10E00F9495800F94CF89789431
:101514000F9412840F945081FFCFDA084821000001
:1015240000D60072202C15030400000000030029DB
:101534008A01318A0100080000358A013B8A0103CF
:101544000000003F8A0100000004000000478A01F7
:101554000000000000000000000000000075207F73
:10156400209D209D20892093209D209D209D209DAD
:10157400209D209D209D209D209D209D209D20001C
:101584000003000000000000000000000000000054
:101594000000000000000000000000000000000047
:1015A4000000000041544D454C0044465520415430
:1015B400584D45474131393241335500040309043C
:1015C400FE8501078601088601558601000000009A
:1015D4001201000200000040EB03E72F04000102A7
:1015E400000109021200010100C0320904000000D8
:0E15F400FF0000000A212C213E211A21402177
:0400000330000000C9
:00000001FF
