:020000021000EC
:1000000000C00091780005FD82C0F092400608E132
:10001000009353060FEF0A950023E9F70091480675
:1000200003FFECC0E0E0F0E0079116910F3F19F4F8
:100030001F3F09F4E3C06BC03091CF0137FDFCCF07
:100040003BB72BBFF8012091CA0113E21093CA01FC
:100050000A01E8952093CA013BBF08953BB72BBF27
:10006000F8012091CA014093CA013DE93093340060
:10007000E8952093CA013BBF089520E008D0E9F736
:1000800008953BBF27913BB702D0D9F708952D9330
:1000900001501040202F212B08950EE0402E0FE03C
:1000A000502E01E0602EF201362D6BBE07911691A5
:1000B000F201EE5FFF4F3F4F3BBFA791B691F201B8
:1000C000362DEC5FFF4F3F4F3BBF479157916691F5
:1000D000242F252B262B21F0FA01362FD2DF01C049
:1000E000CCDF07E0400E00E0501E601EA201662D2E
:1000F0004C315F406140B8F2089501E70DBF00E266
:100100000EBFC8E5DAE20E944D800E944581F09260
:10011000530600910020109101200A3A154511F074
:100120000C940000F0920020F092012000E2009375
:100130007800F6CFAA84998488847F806E805D8061
:100140004C80BB81AA8199818881F0E0EC0FFD1F72
:10015000EF010895BD01D801F90104C021912D934B
:1001600041505040242F252BC9F7DB010895AA9256
:100170009A928A927A926A925A924A92BA93AA93DD
:100180009A938A930895AF93BF93D80101900D92EB
:1001900041505040D9F7BF91AF9108954091CA01A5
:1001A000E22FF32F0093CA0104914093CA010895EE
:1001B00040E04BBFF80158ED54BF208308954A95A5
:0A01C0001AF0000F111FFBCF089585
:1001F4000C9446850C947E857ECF0FBF08954FB72F
:10020400F8941095F0E0E02FE059FF4F00810123AE
:100214000083042FF2CFBA01A801890105D14DC38F
:1002240061E06A93BA01A901FFD05CC3B9019801E6
:100234008B01D7C20E94BC80C801D9012A0104C025
:100244002D918C01E0D2019682012FEF420E521EB5
:10025400012BB1F7E6E00C949F8062E770E2260F71
:10026400371F0C94AA806CE171E2F9CFF8940AEA82
:1002740015E5E0E0F0E2008311832091790021602C
:1002840009E735D0FFCF27E402EA31D005D07894CE
:100294009CD3D6D3FFCFB1CF24E001E428D02DE105
:1002A40029D0009362002CE125D0009363000FB79E
:1002B400F894E0E5F0E0108112601083ECDF009127
:1002C400510001FBE6F721E000E411D0E6E5F0E09F
:1002D4000081097F008300E807870BEB008B008116
:1002E40004600083E0E6008101600083089510E06B
:1002F4000C94D88030E002E00C94CE8000E00093AF
:10030400202153D00091900000931C210091910072
:1003140000931D210091920000931E2100919300EF
:1003240000931F210091D00101FB16F001E001C0F0
:1003340000E0E2C034D2AAE3B1E200913A210076AF
:10034400003289F510913B210C91569707FF0FC09D
:10035400125041F01A9529F526E030E09E968D0161
:10036400E5D11DC0D4964BD5E1F009951DC01A9571
:1003740021F01350B1F419D012C0009120210023B0
:1003840021F008E311E8929608C020E430E003E687
:1003940011E2CCD103EE11E894960D931C9301E085
:1003A40003C00FE063D000E066C100C0BCD100E030
:1003B40006A702E002AB00E004A305A302A303A383
:1003C4000895F3DF10E0AFD114AB15ABE3E6F1E22F
:1003D40030812181203001E0300709F428C0203029
:1003E40003E0300709F448C02130300709F464C041
:1003F400203004E0300761F40091CF0107FDFCCF09
:1004040040E200E011D00E942E8048D200E074C087
:100414002330300721F401E0009320210895233094
:10042400364009F458C07DC120E030E00895B7D1CA
:1004340033D011F080D019C0A0E5B1E22D913C91E8
:100444009D972030304019F403E010D002C02AD028
:1004540011F400E00AC020E038E0E7D067D107E2F9
:1004640013E894960D931C9301E005C10093522167
:100474000AE000935621089515D019F025D011F4FF
:1004840016D04FC109D019F00DE912E802C008ECEA
:1004940012E804AB15AB32C0009121211091222146
:1004A4000123089505E611E24DD00023089503E0E9
:1004B40006A70AE002AB0895F5DF19F005D011F4A0
:1004C400F6DF2FC170D01AC0E4E2F1E222A533A511
:1004D400203030400895E3E6F1E20281002359F42C
:1004E4000381013118F008E0C1DF1BC109D000E02D
:1004F4001AD106AB07AB02C00093212101E0089595
:10050400033041F0023031F0043021F0053011F0B5
:1005140011E001C010E01093222112E0019FF001CC
:10052400E356FF4D6081F1810AE411E2E62F48E0D1
:1005340050E00C94C38003E00093522102E0009346
:100544005621EFC0BD01D8015C91F8010181402F13
:10055400EAD006AB57AB12961D9130E00C9120E027
:1005640006A017A020A431A4001511052205330507
:1005740020F008E09DDF00E007C0041B150B0F5FAF
:100584001F4F00AF11AF01E0DB01089577D040ADFC
:1005940051AD49D09A9623D49B970995FD0120AD7E
:1005A40031AD4FD068C045D1A4E2B1E2FD0100AD48
:1005B40011AD012B39F400E018EF00AF11AF80E06A
:1005C40098E010C0FD0100AD11AD202F212B51F199
:1005D400183010F4C80102C080E098E0081B190B21
:1005E40000AF11AFAC011FD062A5F3A5E62F0995AA
:1005F4001CD007C0FD0126A937A92F5F3F4F26ABAA
:1006040037AB9C010197232BE9F2F80121918F016B
:100614002F3F81F305E0009352210AE113E8FD0125
:1006240004AB15AB83C326A937A904EA11E20895E4
:100634007AD026A907A90093A4212093A52122E01A
:1006440030E004EA11E21AD259CF18D006A917A94A
:1006540040AD51AD202F2F73622F70E024EA31E2B8
:10066400260F371F9C96BBD39D97099500E0FD018B
:1006740004A305A301E0A991B9910895BA93AA939B
:10068400A4E2B1E2FD01089500913C210F770093AB
:10069400C304089500913C21002319F0025039F05D
:1006A40005C024E030E007E111E218C03AC020E0C0
:1006B40004EE10E250E032E0F0E0E22FEC51FF4DA6
:1006C40042A1239FF801E00DF11D4283538323953A
:1006D400203190F322E22093E42030E0B4CF23D001
:1006E400018D0A9529F00A95A1F00A95B9F019C06F
:1006F400E0ECF0E2228930E072968F0117D013D03B
:10070400C0D220A131A10217130710F400A311A332
:10071400F5CEE0ECF0E222813381EFCFBBDF0023A2
:1007240071F700E00895E4E2F1E20895A7C137D03B
:10073400FADF06890F7189F51789068907FF14C046
:10074400112329F0165041F0125041F026C022E046
:1007540030E004EA19E206C0C2DF20C021E030E044
:1007640006EA19E2E3DF17C0155019F0145031F00E
:1007740014C006E413E802A313A30DC001E010E0C3
:10078400A4EAB9E20D931C93008D0093A6290023DB
:1007940011F0B4DD03C001E001C000E06CCFBA93F6
:1007A400AA930895C0DF00E000A301A302A303A35A
:1007B40004A305A3068907FF03C063D2012B81F0BC
:1007C40000913A21007619F4B2DF002341F400913C
:1007D4003A210F71013021F4ADDD002309F08ECEF2
:1007E400A0CFB90132D0208127FDFDCFECEC2081D0
:1007F40028602083105F98018B0133DDECECF1E07D
:100804000081077F72CD15D0C801A22FB091CA0113
:1008140012D01BD0008107FDFDCF39D09093C101C8
:100824008093C001A093C40105E312D0B093CA0120
:100834007DC20C94BE8009D0008107FDFDCF0081EC
:1008440001FF02C006E304D00895EFECF1E008953F
:100854000093CA0121E00BEC11E04ACD9A938A93EC
:10086400802F9091CA01E7DF0091CF0107FDFCCFF3
:100874000ED00093C1010093C0018093C40103957D
:100884000032C8F39093CA0189919991089503E3C2
:100894000093CA0100E00093C20108958A930FEF08
:1008A400DDDFD3DF008107FDFDCF8091CA0100E3C6
:1008B400CFDF8093CA01899108952091CF0127FD4C
:1008C400FCCF262F272B69F0F80130E03BBF26919F
:1008D400FA0120834F5F5F4F0F5F1F4F61507040DD
:1008E400F0CF08950E94B7802297DA013B012801D6
:1008F400912F80E08D8407C04091CF0147FDFCCF4C
:1009040045E20E942E80062D072909F442C0AA243C
:100914000091CF0107FDFCCF00E8902E882071F0F4
:10092400FC0130E03BBF07911691088319830881CD
:100934000F3F1F4F31F0AA24A39403C00FEF088385
:100944000983062D072979F04816590629F425D07C
:100954000883062D072939F0FC0131964E165F06EF
:1009640011F41BD00983488159818C015DDD0E94FB
:100974001C8002969A9491F6AC015A95AA208A0199
:1009840053DD09F0B9CF4091CF0147FDFCCF44E2DC
:10099400B8CF2296ECE00C949A800FEF600E701E94
:1009A40001E0400E00E0501E0D91089526CC2AE18E
:1009B40007D00093FA042BE103D00093FB040895BD
:1009C40099DC0F3F09F40FE108950E94BF8000E015
:1009D4000093600010E413DC23E004E488DC7ED29E
:1009E4000064008301E000936000AFB7F89400E076
:1009F40010E028E0029FF001EC5DFE4D15830395A5
:100A04000230C0F3D4DF0091C0040093C00466D266
:100A14000068008300810061008384E291E204960F
:100A2400E6EC80839183E0EC36D10FEF0583E8ECAC
:100A34000081016000830A2FB9DFE3E00C94A280F7
:100A44000FB7F89410E41093CA0410E21093CA0488
:100A5400E1ECF4E0108111601083E9EC1081126084
:100A64001083E8EC108110641083E9EC10811160AC
:100A74001083E8EC10811068108398CF54DE068F41
:100A8400178F20A331A3089567D00091CB0407FFEB
:100A940002C000E82EC008D2002361F5EBEC1FD29F
:100AA40004FF1EC000E117D200E00093A62901E074
:100AB40010E00093A4291093A52900E00093C30437
:100AC40020E430E05CD020E430E010E000E857D0CF
:100AD40007EA19E200932C2110932D212BD10AC08F
:100AE400008106FF02C000E404C0008105FF02C0CB
:100AF40000E2F1D11ED018952FD0A4D101FD02C07F
:100B040091D1B1F402E00093CC040091C50422D049
:100B1400F801008105FF06C01DD020E2F8012693EC
:100B240010D106C000E817D020E2F8012693B6D011
:100B3400E1CF9BBF8FBF09911991299139914991B7
:100B44005991699179910990199029903990E99175
:100B5400F9919ACE00E02DC09A938A93FA93EA937E
:100B64003A922A921A920A927A936A935A934A93DD
:100B74003A932A931A930A938FB79BB708958A934B
:100B84002051304041F02051304039F02052304063
:100B940031F080E005C081E003C082E001C083E061
:100BA400DADF20E0F801218326E02083806481835A
:100BB40082CE68E271E2202F2F70220F402F440F63
:100BC40000E010E0001F020F43E00E94DF80060FE8
:100BD400171F08959D01E8EC82D10F7D00830081E9
:100BE4000F7D00834DD102E00593A2E3B1E200E062
:100BF40010E00D930C93539600E2069300E40693E1
:100C040049D1069300E406931D931D931D931C93F1
:100C140015971D931C9312AFD9010895C0DD8CD094
:100C2400002331F0033011F0043009F436D182D0BE
:100C3400FD0106811781083050E0104009F548E0B5
:100C440027EA39E20AE311E20CDBE8ECF4E023D012
:100C540022D0A8DD002311F4F8D012C0FD010689CA
:100C640007FF05C011D002E006AF18D009C009D0B3
:100C7400012B11F4F6D004C007D001E006AF06D171
:100C8400FACC048D158D089500E002AF03AFDC9615
:100C94000D930C9308950081006227CB4CD0033050
:100CA40011F447D043C0A7D080A191A1801B910B20
:100CB400282F292BE9F496D0E4DF0217130721F03B
:100CC4000091E729002311F0DED030C004A115A162
:100CD40020E00030120799F0F8010995002379F01B
:100CE40000E0FD0104AFFC960183FD0180A191A108
:100CF400803400E0900718F080E490E001C001E047
:100D04000093E729FD0186879787068D178D24AD0B
:100D140035AD020F131F008B118BDC960D91132F31
:100D2400080F191F1C930E93ABD0B1D0E4E00C94C0
:100D3400A180B3D04FCF7DDDA4E2B1E20091622166
:100D44000895F9DF043011F4F4DF48C0FD01868111
:100D5400978164AD75AD20A131A18B01080F191FD6
:100D64002017310718F4C901861B970BAC0127EA39
:100D740039E2068D178D060F171F73DA3CD0080F62
:100D8400191F04AF15AF8034904031F42FD0448D37
:100D9400558D2417350750F000A311A394962FD036
:100DA40019F00995002389F05CD018C020A131A165
:100DB4002017310791F4949612D0959700E0E03013
:100DC400F00719F00995002311F43FD007C013D0A0
:100DD40009D000E0DC960D930C9358D0A7CFED9189
:100DE400FC91089503D022AF33AF089522AD33AD03
:100DF400200F311F0895FD0104AD15AD0895EFDFF7
:100E040000E0E030F00708951DD001FD0AC00AD0CB
:100E140041F400916221013009F423C0043009F443
:100E240017D008955FD041CB0DD001FD0AC0FADF81
:100E340041F400916221023009F425C0033009F421
:100E440007D008950091CC04089505E00093622131
:100E5400E1E3F1E204E00593E9E2F1E204E0059361
:100E640008951B2F2A2F5FDC03E0DF01DE960C932D
:100E740000E00687078704D00AD0A22FB12F089577
:100E8400E0E3F1E2089504E00093622103D002E07C
:100E940006930895E8E2F1E2089581DCA6E4B1E264
:100EA400AEDF09F00995E7CBEBEC19D002FF08C0DF
:100EB400F093CA040091302106FF0BC0A5DF09C0DE
:100EC400008101FF07C002E006D00091282106FD41
:100ED400ABDF14CB26CC0093CA040895E0ECF4E015
:100EE40000810895AFDF00FF1CCC01E00093CC0427
:100EF400D1DF00E80693C4DF00E8069301E0EBDFEE
:100F0400C9DF00E106938ADEF9CACC081C2100007F
:100F140000A90072201C0F01040000000001000D54
:100F24008112810008000018811C81030000002F39
:100F34008100000400000035810000000000000072
:100F440000000075207D209520952085208D20951A
:100F540020952095209520952095209520952095E5
:100F640020952095200009021200010100C03209D9
:100F740004000000FF000000120100020000004015
:100F8400EB03DD2F04000002000100030000000059
:100F9400000000000000000000000000000000004D
:100FA400000000000000000000000000444655203E
:100FB4004154584D454741363441345500040309E2
:010FC4000428
:0400000310000000E9
:00000001FF
